:020000040800F2
:10000000802D0020B5100008BD100008BF100008AA
:10001000C1100008C3100008C5100008000000004F
:10002000000000000000000000000000C7100008F1
:10003000C910000800000000CB100008E508000807
:10004000CF100008CF100008CF100008CF10000814
:10005000CF100008CF100008CF100008CF10000804
:10006000CF100008CF100008CF100008CF100008F4
:10007000CF100008CF100008CF100008CF100008E4
:10008000CF100008CF100008CF100008CF100008D4
:10009000CF100008CF100008CF100008CF100008C4
:1000A000CF100008CF100008CF100008CF100008B4
:1000B000CF100008CF100008CF100008CF100008A4
:1000C000CF100008CF100008CF100008CF10000894
:1000D000CF100008710C0008CF100008CF100008E6
:1000E000CF100008CF100008CF100008CF10000874
:1000F000CF100008CF100008CF100008CF10000864
:10010000CF100008CF100008CF100008CF10000853
:10011000CF100008CF100008CF100008CF10000843
:10012000CF100008CF100008CF100008CF10000833
:10013000DFF80CD002F0ACF8004800470F070008C9
:10014000802D002080F30888704700007047FE482B
:10015000FE490860704710B501F021FC352001F020
:10016000B9FE10BD10B501F026FC10BD1CB5F8A1FC
:1001700003C9CDE90001F848062142696846904765
:100180001CBD30B587B0F5A003C8CDE90501F5A1C8
:1001900003C9CDE90301002001900290EE48F34A23
:1001A0006421C36B002098470546012D04D1F04817
:1001B0000068401CEE490860ED4800680B280BD130
:1001C0000020EB490860E448016C002088470220C9
:1001D000E849087007B030BDDF49C8698047044668
:1001E000062C2CD1DC480621426A01A89047062241
:1001F00001A905A802F03EF8C0B90020DC4908605A
:10020000D548016C0020884753208DF817005220F4
:100210008DF81800A8208DF81900CF4806214269F2
:1002200005A890470120D349087034E0CA48062148
:10023000426903A89047C849886980472BE0CE48A7
:100240000068A04204D0CC4804600020CB4908706C
:10025000C148CB4A4FF47A71C36B012098470546D9
:10026000012D18D1C5480078401CC44908700846C3
:10027000007802280FD1C048006860B10020BE4954
:100280000860BE490870B4480621426903A8904737
:10029000B1498869804700BF9CE72DE9F04F8FB0D6
:1002A0000027B8A103C9CDE90D01AEA103C9CDE96D
:1002B0000B01B6A103C9CDE90901B6A003C8CDE978
:1002C0000701B6A103C9CDE9050100200390049000
:1002D000B4A000680290002001909F49C86980473F
:1002E0000746A7F5006005387ED19B4840F605011A
:1002F000426AAD489047042202A9AB4801F0BAFF18
:1003000038B19548062142690BA890470FB0BDE867
:10031000F08F4FF0000A002504E0A348405D80EA1A
:100320000A0A6D1C40F604008542F6D39E4890F8F8
:100330000408504505D08848062142690BA890471B
:10034000E4E7DFF8648208F104089848008832285E
:100350000DDD8148062142690DA8904794489549D2
:10036000086000208349087090490880CEE7FFF7B5
:10037000F2FE9048006801F057FB044604E08D4807
:10038000006801F051FB0446042CF8D100252FE051
:10039000681C18F800004FEA002918F805004844C6
:1003A0001FFA80F90020019017E049468148006853
:1003B00001F03DFC044605E049467E48006801F036
:1003C00036FC0446042CF7D17A48D0F800B0BBF8CC
:1003D0000000484501D10120019001980028E4D097
:1003E00074480068801C00E012E072490860AD1C8F
:1003F000B5F5006FCCD3FFF7B5FE6C480088401C04
:100400006A49088054480621426907A8904799E044
:10041000062F6CD150485A4A6421C36B022098477A
:100420000646012E62D164480078401C624908707B
:1004300008460078022859D1002008704648016C0F
:100440000220884744480621426A03A890470622B2
:1004500009A903A801F00EFF002847D154485549C7
:100460000860FFF778FE554801F0DEFA044603E025
:10047000524801F0D9FA0446042CF9D14AF6AA21CF
:100480004E4801F0D4FB044605E04AF6AA214B4849
:1004900001F0CDFB0446042CF7D1444801884748BD
:1004A000801C01F0C4FB044606E040480188434834
:1004B000801C01F0BCFB0446042CF6D1404801F03E
:1004C000B3FA044603E03E4801F0AEFA0446042CB9
:1004D000F9D1FFF747FE20480621426905A8904759
:1004E000022024490870322000F05CF90EE73548FC
:1004F0000068B84204D033480760002032490870D1
:1005000015481F4A41F28831C36B032098470646BD
:10051000012E17D12C480078401C2B490870084642
:10052000007805280ED100200870204908800A486C
:10053000062142690BA890471D481E49086000200B
:100540000C490870002041E0240000202C0000200D
:10055000AA00035342B8000030000020AA00034361
:1005600050BA0000AA00035345BF00006D01000807
:100570000400002000000020080000200C000020E3
:100580004D010008AA0003534FB50000AA00034321
:1005900046AC0000AA00035352A80000AA0003536F
:1005A00046BC0000AA080244100900201C000020DC
:1005B0000030020818000020140000200048000845
:1005C00000F00308100000201500002062490870A8
:1005D00000BF9BE670B50446604E3078AA2803D170
:1005E00003205F49087070BD3078552810D15D49EF
:1005F00020680840B0F1005F06D172B665682068D7
:10060000FFF7A0FDA84707E0002055490870EAE77A
:10061000002053490870E6E700BFE4E72DE9F04702
:100620004E48801CB0F800804F4E00274AE000245E
:1006300005E030884D4921F81400B61C641CB4F55F
:10064000806FF6D3FFF787FD4948006801F0ECF9A9
:10065000054604E04648006801F0E6F90546042D29
:10066000F8D1002428E04FF000091CE03F4830F8A2
:1006700014103F48006801F0DAFA054607E03B48ED
:1006800030F814103A48006801F0D1FA0546042DFC
:10069000F5D1374800680088344931F81410884291
:1006A00001D14FF00109B9F1000FDFD030480068E7
:1006B000801C2F490860641CB4F5806FD3D3FFF70A
:1006C00051FD7F1C4745B2D3FFF745FD234801F09C
:1006D000ABF9054603E0214801F0A6F90546042DD3
:1006E000F9D145F255511D4801F0A1FA054605E042
:1006F00045F25551194801F09AFA0546042DF7D1F3
:10070000FFF730FD022016490870BDE8F0874FF072
:1007100000601849086062B6FFF719FD16490868BD
:10072000804718E00E48007830B1012807D0022831
:1007300008D003280DD109E0FFF723FD0AE0FFF7F9
:10074000ACFD07E00D48FFF745FF03E0FFF766FF4C
:1007500000E000BF00BFE5E71400002000480008EB
:10076000000000200000FE2F0030020810010020D1
:100770002000002008ED00E03000002000500008BC
:10078000704700BF0100A0F10100FBD1704700B528
:10079000034602E00820FFF7F4FF1800A3F101036D
:1007A000F8D100BD00B5034603E04FF4FA50FFF75F
:1007B000E8FF1800A3F10103F7D100BD10B504460E
:1007C000102C02DB0BA001F075FD102C02DA0E4894
:1007D000005D10BD3020FCE710B50C4800F07F40F4
:1007E0000B4908600B4800F07F400A49086000F0A0
:1007F00023F810BD0A4153534552543A2068657896
:10080000203C2031360A000004230008D9070008E4
:10081000940000209800002010B5002807DA0A078D
:10082000140E104A00F00F031B1FD45403E00A07F4
:10083000130E0D4A135410BD10B500F063FA00F00A
:100840003AFB00F09DF84FF4A06000F049FE0E2145
:100850004FF0FF30FFF7E0FF0F216FF00100FFF7CF
:10086000DBFF10BD18ED00E000E400E010B502462B
:100870002AB3012A12D0022A32D1574800780A2816
:1008800001D1002010BD544803780078401C524C20
:100890002070524840F823100120F3E750480078B8
:1008A000042801D10020EDE74D4803780078401C72
:1008B0004B4C20704B4840F823100120E2E74A4897
:1008C0000078022801D10020DCE74748037800784F
:1008D000401C454C2070454840F823100120D1E7CA
:1008E0000020CFE710B542480078401CC0B2404914
:1008F0000870642801D1002008703C4908688047CE
:100900003A49486880473A4800780A2190FBF1F05C
:10091000C4B23748007890FBF1F201FB12000A28BC
:100920002CD2DFE800F005090D11151A1D20212237
:100930002C490868804721E02A49486880471DE023
:1009400028498868804719E02649C868804715E02B
:10095000224951F82400804710E000F05BFA0DE0D6
:1009600000F0C9F80AE009E008E014B1012C02D156
:1009700000E001E000E000BF00BF00BF00BF10BD0D
:1009800030B51C48006842F21072B0FBF2F1B1F1D0
:10099000807F00D31BE021F07F40401E4FF0E0221B
:1009A000506150170F22002806DA1301124C00F094
:1009B0000F052D1F635502E01301104C235400BF97
:1009C00000204FF0E02290610720106100BF0C4929
:1009D0000C48416430BD0000DC000020B400002061
:1009E000DD000020A4000020DE0000209C0000208C
:1009F000DF000020E400002018ED00E000E400E04B
:100A00006D08000830000020F148F249086000F24B
:100A1000FF70486008460068886008460068C86043
:100A2000002008827047EC48EC49086000F6FF702F
:100A3000486008460068886008460068C860002072
:100A4000088270470146E348008AB0F5006F01DB79
:100A500000207047DF4880680170DE488068401CD5
:100A6000DC4A9060104680685268904203D9D948A9
:100A70000068D84A906072B6D9480088401CD84AAD
:100A80001080D448008A401CD24A1082D448008882
:100A9000401E0004000CD24A108000D162B6012032
:100AA000D7E770B504460D464DB103E014F8010BCD
:100AB000FFF7C8FF2800A5F10105F7D10DE009E017
:100AC00020780A2802D10D20FFF7BCFF14F8010B93
:100AD000FFF7B8FF20780028F2D170BD70B504464A
:100AE0000D460A2C02D10D20FFF7ACFFE0B2FFF754
:100AF000A9FF204670BDB748008A00B97047B948C1
:100B0000008810F0400F00D1F8E7B248C0680078C4
:100B1000B449091D0880AF48C068401CAD49C86091
:100B20000846C0684968884203D9AA480068A949AC
:100B3000C86072B6AA480088401CA9490880A54828
:100B4000008A401EA3490882A5480088401E000470
:100B5000000CA349088000D162B600BFCEE710B5F3
:100B6000024672B69E4B1B885B1C9D4C2380002066
:100B70000AE000BF9B4B1B8813F0400FFAD0135CB8
:100B8000984C241D2380401C8842F2D3944B1B8830
:100B90005B1E1B041B0C924C238000D162B610BD5F
:100BA0008E48008A704701468C48008A08B90020A8
:100BB00070478A48C068007808708848C068401C40
:100BC000864AD0601046C0685268904203D9834874
:100BD0000068824AD06072B681480088401C804A12
:100BE00010807E48008A401E7C4A10827C48008823
:100BF000401E0004000C7A4A108000D162B6012029
:100C0000D6E710B503460A467448008A90422BD3B3
:100C1000002126E07148C068007858546F48C068C9
:100C2000401C6E4CE0602046C0686468A04203D956
:100C30006A480068694CE06072B669480088401CE8
:100C4000674C20806548008A401E644C20826448BE
:100C50000088401E0004000C614C208000D162B668
:100C6000491C9142D6D301E0002010BD0120FCE7D1
:100C700010B540F225515B4800F0EEFBF8B1594841
:100C800000F06AFBC4B25548008AB0F5805F00DB13
:100C900010BD52488068047050488068401C4F491D
:100CA0008860084680684968884203D94B480068D4
:100CB0004A4988604948008A401C484908820821FE
:100CC000484800F0B3FB012802D1464800F044FB3D
:100CD00000BFDDE710B5012240F22551414800F088
:100CE000D6FA01213F4800F0C6FA10BD10B5002227
:100CF00040F225513B4800F0CAFA0021394800F083
:100D0000BAFA10BD00B587B0012144F2050000F029
:100D1000BFFD4FF40070ADF8180003208DF81A00E5
:100D200018208DF81B0006A92F4801F057F94FF441
:100D30008060ADF8180048208DF81B0006A92A48ED
:100D400001F04CF925208DF8040003208DF80500F2
:100D500002208DF8060001208DF8070001A800F0A0
:100D6000C4FB4FF4E13002900020ADF80C00ADF868
:100D70000E00ADF81000ADF814000C20ADF8120014
:100D800002A9184800F0EBF9012240F2255115485C
:100D900000F07DFA0121134800F06DFAFFF734FEF0
:100DA000FFF741FE1148124948601249104881601E
:100DB0001149C16011490161114941611149016243
:100DC000114941621149C1611149816107B000BDFA
:100DD0002C11002018110020401900202C1900208F
:100DE000280000200038014000080140D50C000810
:100DF00030000020ED0C0008450A00085F0B0008D9
:100E0000A30A0008A70B0008030C0008A10B0008A8
:100E1000270A000870B500242A48006800B970BD90
:100E20002848056818E015F0010F13D0264850F83F
:100E30003400401E244941F834000BD10120A04069
:100E40002049096881431F4801601F4901EBC40123
:100E5000486880476D08641C002DE4D100BFDEE7C0
:100E600010B5034617480068D84010F0010F01D0B4
:100E7000002010BD144840F8331000EBC30042605E
:100E8000012098400F4C246820430E4C2060012024
:100E9000EFE701460B480068C84010F0010F01D190
:100EA0000020704701208840064A126882430548A6
:100EB00002600120F5E705490548C1630549016461
:100EC00070470000E000002040290020610E00086B
:100ED00030000020930E00080CB500200190009017
:100EE0006B48006840F480306949086000BF68487A
:100EF000006800F4003000900198401C01900098B8
:100F000018B90198B0F5A06FF1D16148006810F4EC
:100F1000003F02D00120009001E0002000900098E6
:100F2000012842D15B48006840F010005949086030
:100F30000846006820F0030008600846006840F09A
:100F400002000860524840685149486008464068BD
:100F500048600846406840F4806048600846406841
:100F600020F47C1048600846406840F4E81048606F
:100F70000846006840F08070086000BF4448006880
:100F800010F0007FFAD04248406820F0030040494A
:100F900048600846406840F00200486000BF3C4896
:100FA000406800F00C000828F9D10CBD10B5FFF71F
:100FB00093FF10BD10B53648006840F00100344979
:100FC000086008464068344908403149486008468E
:100FD0000068324908402E4908600846006820F43D
:100FE000802008600846406820F4FE0048604FF406
:100FF0001F008860FFF7DAFF4FF0006028490860A3
:1010000010BD10B5002100200022214B5B6803F0C9
:101010000C0121B1042906D0082928D107E0214B71
:10102000214C236027E01F4B1F4C236023E0184B0B
:101030005B6803F47010164B5B6803F48032022384
:1010400003EB904022B9194B4343174C23600DE04A
:101050000F4B5B6813F4003F04D0144B4343124C16
:10106000236003E00F4B43430F4C236003E00D4B21
:101070000D4C236000BF00BF054B5B68C3F3031337
:101080000B4CE15C084B1B68CB40074C236010BD48
:1010900000100240002002400000FFF8FFFFF6FEB3
:1010A00008ED00E000127A00E400002000093D0095
:1010B000E80000200648804706480047FEE7FEE7B4
:1010C000FEE7FEE7FEE7FEE7FEE7FEE7FEE7FEE7F8
:1010D000B50F00083101000810B50446FB488442F2
:1010E00009D10121880300F0EDFB00214FF480407D
:1010F00000F0E8FB32E0F648844209D101214804BF
:1011000000F0EDFB00214FF4003000F0E8FB25E09B
:10111000F048844209D10121880400F0E0FB00215D
:101120004FF4802000F0DBFB18E0EB48844209D14B
:101130000121C80400F0D3FB00214FF4002000F08F
:10114000CEFB0BE0E548844208D10121080500F000
:10115000C6FB00214FF4801000F0C1FB10BD2DE94B
:10116000F04786B005460E460024A24600BFA146C1
:101170000027B08900B100BF2F462C8A4CF6FF70C3
:101180000440F08804432C82AC894EF6F3100440EE
:10119000B08831890843718908430443AC81AC8A23
:1011A0004FF6FF400440B0890443AC8201A800F030
:1011B00002FBC648874202D1DDF810A001E0DDF84D
:1011C0000CA0A88910F4004F08D00AEBCA0000EB6D
:1011D0000A1031684900B0FBF1F807E00AEBCA00D9
:1011E00000EB0A1031688900B0FBF1F86420B8FB0D
:1011F000F0F004012009642101FB1089A88910F492
:10120000004F08D0322000EBC900B0FBF1F000F035
:101210000700044308E0322000EB09106421B0FB12
:10122000F1F000F00F0004432C8106B0BDE8F08718
:101230004FF41651016000218180C18001810C2191
:10124000418100218181704710B502460020108A3B
:101250004FF2FF0318400B884C8823438C882343AC
:10126000CC8823431843108210BD002101804180A7
:101270008180C180704721B1828942F4005282810D
:1012800004E082894DF6FF731A4082817047F0B501
:1012900003460024002600250020A1F510676A3FC0
:1012A00000D100BF1846C1F3421401F01F06012708
:1012B00007FA06F5012C01D10C3004E0022C01D113
:1012C000103000E014301AB107682F43076002E0C5
:1012D0000768AF430760F0BD1AB1838A0B4383826E
:1012E00002E0838A8B4383827047028A4FF6F07351
:1012F0001A400282028A0A430282704782894FF2B0
:10130000FF731A40828182890A438281704721B12A
:10131000828942F00202828104E082894FF6FD73E5
:101320001A4082817047028A4FF6DF731A400282A8
:10133000028A0A430282704721B1028A42F4804243
:10134000028204E0028A4BF6FF731A400282704761
:10135000C1F308028280704701468888C0F3080004
:101360007047818941F0010181817047028BD2B2BF
:101370000283028B42EA012202837047028B02F44D
:101380007F420283028B0A430283704721B1828A23
:1013900042F02002828204E0828A4FF6DF731A4014
:1013A0008282704721B1828A42F01002828204E078
:1013B000828A4FF6EF731A408282704721B1828A87
:1013C00042F00802828204E0828A4FF6F7731A40E4
:1013D0008282704721B1828942F40042828103E017
:1013E0008289C2F30E028281704721B1828A42F45F
:1013F0000062828204E0828A4FF2FF731A40828286
:101400007047828A4FF6FB731A408282828A0A43AF
:101410008282704721B1828A42F00202828204E015
:10142000828A4FF6FD731A4082827047024600207E
:10143000B1F5007F00D100BF13880B4201D001201D
:1014400000E00020704701F40072B2F5007F00D187
:1014500000BFCA430280704770B5024600240023D3
:1014600000250020A1F510666A3E00D100BFC1F33F
:10147000421501F01F03012606FA03F3012D02D1E4
:101480009689334006E0022D02D1168A334001E0EE
:10149000968A33400C12012606FA04F4168834406A
:1014A00013B10CB1012000E0002070BD10B5002286
:1014B0000023A1F510646A3C00D100BF0A12012488
:1014C0009440A3B2DC43048010BD0000003801400A
:1014D0000044004000480040004C004000500040E4
:1014E00031490143314A1160704770B50021002332
:1014F0000F22C4780CB32D4C246804F4E064C4F5C6
:10150000E064210AC1F10403CA40447804FA03F1FB
:101510008478144021430901254C0678A1550478AC
:1015200004F01F050124AC4005786D114FF0E02652
:1015300006EB8505C5F8004109E0047804F01F05B5
:101540000124AC401B4D0678761145F8264070BD4D
:10155000194A0A400243154B1B1F1A60704739B1E4
:10156000124A121D12680243104B1B1D1A6006E03E
:101570000E4A121D126882430C4B1B1D1A607047E5
:10158000042808D14FF0E021096941F004014FF02F
:10159000E022116107E04FF0E021096921F0040128
:1015A0004FF0E022116170470000FA050CED00E0F9
:1015B00000E400E080E100E080FFFF1FDD480068FC
:1015C00040F00100DB49086008464068DA490840FD
:1015D000D849486008460068D8490840D54908609D
:1015E0000846006820F4802008600846406820F41F
:1015F000FE0048604FF41F0088607047CD490968BD
:1016000021F48031CB4A11601146096821F4802110
:101610001160B0F5803F03D0B0F5802F0ED106E009
:10162000C449096841F48031C24A116007E0C149E8
:10163000096841F4A021BF4A116000E000BF00BF6B
:10164000704710B501460022002300204A11012AEC
:1016500002D1B84C236806E0022A02D1B54C236AB5
:1016600001E0B44C636A01F01F02012494401C4263
:1016700001D0012000E0002010BD38B5002000900E
:101680000024002500BF3120FFF7DBFF054600984E
:10169000401C00900098B0F5A06F01D0002DF2D052
:1016A0003120FFF7CEFF08B1012400E000242046DE
:1016B00038BD014600209F4A106820F0F80040EA3B
:1016C000C100106070479E490860704702460020C4
:1016D000984B586820F47C1042EA01031843954B5C
:1016E0005860704796490866704701460020914A45
:1016F000506820F003000843506070478D484068F0
:1017000000F00C007047014600208A4A506820F023
:10171000F00008435060704701460020854A506839
:1017200020F4E06008435060704701460020814A81
:10173000506820F4605040EAC1005060704729B101
:101740007C4A527A02437B4B5A7204E0794A527ABD
:101750008243784B5A7270477A4908607047014655
:101760000020744A506820F440400843506070479D
:101770000021754A11706F4A82F82010012802D0AA
:10178000042808D103E001216F4A117004E005210B
:101790006D4A117000E000BF00BF70476B490860E0
:1017A00070476449096A0143624A11627047674998
:1017B00044390860704730B500210022002400231E
:1017C0005C4D6D6805F00C0121B1042905D0082994
:1017D00023D105E05E4D056022E05D4D05601FE010
:1017E000544D6D6805F47012524D6D6805F48034E7
:1017F000022505EB92421CB9564D554305600BE09E
:101800004C4D6D6815F4003F03D0524D55430560B3
:1018100002E04F4D5543056002E04D4D056000BFAD
:1018200000BF444D6D6805F0F00109094A4D6B5C3D
:101830000568DD4045603F4D6D6805F4E061090ACB
:10184000454D6B5C4568DD4085603A4D6D6805F43B
:101850006051C90A404D6B5C4568DD40C560354D3F
:101860006D6805F44041890B3C4D6B5CC568B5FB68
:10187000F3F5056130BD29B12E4A526902432D4B63
:101880005A6104E02B4A526982432A4B5A617047DD
:1018900029B1284A92690243264B9A6104E0254AFD
:1018A00092698243234B9A61704729B1214AD269D8
:1018B0000243204BDA6104E01E4AD26982431D4B89
:1018C000DA61704729B11B4AD2680243194BDA60CA
:1018D00004E0184AD2688243164BDA60704729B197
:1018E000144A12690243134B1A6104E0114A126947
:1018F0008243104B1A6170471449403908607047A1
:101900000F49C86470470B49C87170470948406A5D
:1019100040F0807007494862704701460020054A40
:1019200092680A4201D0012000E00020704701497E
:1019300088727047001002400000FFF8FFFFF6FEBB
:1019400000004242D800424220100240800442423D
:1019500000127A0000093D00F80000200801002074
:1019600001460020FE4A106800F03800084310606D
:101970007047FB49096821F00801F94A11601146D6
:101980000968014311607047F549096821F01001A9
:10199000F34A116011460968014311607047F1482C
:1019A000EF494860F04848607047EE48EC494860AD
:1019B000ED4848607047EA48006940F08000E84917
:1019C00008617047E648006940F08000E44908611A
:1019D00070470420E249C96811F0010F01D00120CD
:1019E0000EE0DF49C96811F0040F01D0022007E0C2
:1019F000DB49C96811F0100F01D0032000E004207A
:101A0000704700B502460423FFF7E3FF034603E0F7
:101A1000FFF7DFFF0346521E012B01D1002AF7D149
:101A200002B90523184600BD30B5044604254FF41D
:101A30003020FFF7E6FF0546042D17D1C84800699E
:101A400040F00200C649086108464461006940F060
:101A5000400008614FF43020FFF7D3FF0546C0482F
:101A6000006941F6FD710840BD490861284630BD56
:101A700010B504244FF43020FFF7C3FF0446042CB4
:101A800016D1B748006940F00400B549086108461E
:101A9000006940F0400008614FF43020FFF7B1FFCB
:101AA0000446AF48006941F6FB710840AC49086143
:101AB000204610BD00B502460423FFF78AFF034607
:101AC00003E0FFF786FF0346521E012B01D1002AD7
:101AD000F7D102B90523184600BD10B504244FF410
:101AE0003020FFF7E7FF0446042C16D19C4800691C
:101AF00040F004009A4908610846006940F040003F
:101B000008614FF43020FFF7D5FF04469448006980
:101B100041F6FB71084092490861204610BD002043
:101B20008F49C96911F0020F01D0012000E00020A7
:101B3000704730B5A5250424FFF7F1FF00B100255B
:101B40004FF43020FFF75DFF0446042C3AD185485E
:101B500083498860844888600846006940F0200016
:101B600008610846006940F0400008614FF43020E9
:101B7000FFF747FF0446042C1BD17948006941F662
:101B8000DF710840764908610846006940F010009E
:101B9000086176480580E002FFF733FF0446052C14
:101BA00010D06F48006941F6EF7108406C49086138
:101BB00008E0052C06D06A48006941F6EF7108403C
:101BC00067490861204630BD78B506460C460425B5
:101BD00000200090E802FFF714FF0546042D24D1F1
:101BE0005F48006940F001005D4908613480E80207
:101BF000FFF707FF0546042D10D1B01C0090200C04
:101C000000990880E802FFF7FCFE05465448006989
:101C100041F6FE7108405249086106E050480069EB
:101C200041F6FE7108404E490861284678BD70B5FE
:101C300004460D460426F002FFF7E3FE0646042E96
:101C400011D14748006940F00100454908612580ED
:101C5000F002FFF7D6FE06464148006941F6FE71E4
:101C600008403F490861304670BD70B505460E46D4
:101C70000424E002FFF7C5FE0446042C17D13948BE
:101C800037498860384888600846006940F010008D
:101C900008612E80E002FFF7B4FE0446052C06D052
:101CA0002F48006941F6EF7108402D490861204630
:101CB00070BD2DE9F04304464FF6FF763746B04637
:101CC000B1460425E443E6B2C4F30727C4F307484A
:101CD0004FEA1469E802FFF794FE0546042D49D146
:101CE00020481F498860204888600846006940F005
:101CF00010000861FF2E06D01C4808300680E8025C
:101D0000FFF77FFE0546042D08D1FF2F06D01748A8
:101D10000A300780E802FFF774FE0546042D0AD159
:101D2000B8F1FF0F07D011480C30A0F80080E8028E
:101D3000FFF767FE0546042D0AD1B9F1FF0F07D062
:101D40000A480E30A0F80090E802FFF75AFE054658
:101D5000052D0FD00248006941F6EF71084007E0F9
:101D60000020024023016745AB89EFCD00F8FF1F3B
:101D7000664908612846BDE8F08330B5054604246D
:101D80004FF43020FFF73DFE0446042C41D160485B
:101D90005E4988605F4888600846006940F020001E
:101DA00008610846006940F0400008614FF43020A7
:101DB000FFF727FE0446042C22D15448006941F65F
:101DC000DF710840514908610846006940F0100081
:101DD00008611DB100205049088002E0A5204E494D
:101DE00008804FF43020FFF70CFE0446052C10D07D
:101DF0004648006941F6EF7108404449086108E02F
:101E0000052C06D04148006941F6DF7108403F4982
:101E10000861204630BDF0B505460E46174604243D
:101E20003B483A4988603B488860E002FFF7E9FD9B
:101E30000446042C19D13548006940F0100033499C
:101E4000086147F0F800304328433349891C088073
:101E5000E002FFF7D6FD0446052C06D02B480069AA
:101E600041F6EF710840294908612046F0BD274836
:101E7000C069800870472548006A704700202349E0
:101E8000096811F0200F01D0012000E00020704708
:101E900029B11E4A126902431C4B1A6104E01B4A15
:101EA00012698243194B1A617047014600200129CB
:101EB00008D1164AD26912F0010F01D0012008E0C2
:101EC000002006E0114AD2680A4201D0012000E059
:101ED000002070470D49C860704704200B49C9684D
:101EE00011F0010F01D001200EE00849C96811F07E
:101EF000040F01D0022007E00449C96811F0100F57
:101F000001D0032000E004207047000000200240C0
:101F100023016745AB89EFCD00F8FF1F10B50446DC
:101F2000CA48844208D101210420FFF7CBFC0021DC
:101F30000420FFF7C7FC46E0C548844208D10121D0
:101F40000820FFF7BFFC00210820FFF7BBFC3AE0A8
:101F5000C048844208D101211020FFF7B3FC0021C2
:101F60001020FFF7AFFC2EE0BB48844208D10121CE
:101F70002020FFF7A7FC00212020FFF7A3FC22E090
:101F8000B648844208D101214020FFF79BFC002184
:101F90004020FFF797FC16E0B148844208D10121A8
:101FA0008020FFF78FFC00218020FFF78BFC0AE0E8
:101FB000AC48844207D101218015FFF783FC002142
:101FC000A015FFF77FFC10BD10B501210846FFF7F3
:101FD00079FC00210120FFF775FC10BD2DE9F041CF
:101FE000024600250026002000230024002791F847
:101FF00003C00CF00F0591F803C01CF0100F03D0C4
:1020000091F802C04CEA050591F800C0BCF1000F40
:1020100031D0146800202BE04FF0010C0CFA00F3D3
:10202000B1F800C00CEA03069E4220D183004FF0B5
:102030000F0C0CFA03F7BC4305FA03FC4CEA04044A
:1020400091F803C0BCF1280F06D14FF0010C0CFA37
:1020500000FCC2F814C00AE091F803C0BCF1480FBC
:1020600005D14FF0010C0CFA00FCC2F810C0401C66
:102070000828D1D31460B1F800C0BCF1FF0F34DDE3
:10208000546800202EE000F1080C4FF0010808FA17
:102090000CF3B1F800C00CEA03069E4221D1830084
:1020A0004FF00F0C0CFA03F7BC4305FA03FC4CEAA3
:1020B000040491F803C0BCF1280F05D100F1080C0D
:1020C00008FA0CF8C2F8148091F803C0BCF1480F6C
:1020D00007D100F1080C4FF0010808FA0CF8C2F81B
:1020E0001080401C0828CED35460BDE8F0814FF624
:1020F000FF710180022181700421C1707047024686
:10210000002093680B4201D0012000E000207047BE
:102110000146886880B2704702460020D3680B42AF
:1021200001D0012000E0002070470146C86880B25D
:10213000704701617047416170470AB1016100E079
:1021400041617047C16070474FF480320A43826139
:102150008161826182698269704702460020424B38
:1021600018684FF68073184040EA021008433E4B4F
:10217000186070473D49C8617047F0B50A460023B2
:1021800000240021002500F00046B6F1004F02D1E6
:10219000354EF16901E0344E7168C0F3034583B2F6
:1021A00000F44016B6F5401F08D121F070612E4EA4
:1021B000766826F070662C4F7E6012E000F4801680
:1021C000B6F5801F06D1032606FA05F4A14341F0B7
:1021D000706106E0460D360103FA06F6B14341F0A0
:1021E000706122B1460D360103FA06F6314300F064
:1021F0000046B6F1004F02D11B4EF16101E01A4ECC
:102200007160F0BD30B500228B071C0F0F2303FA5D
:1022100004F2154B08338C1053F824309343124CBE
:1022200008348D1044F8253023468C1053F82430A0
:102230008C07240F00FA04F423430B4C08348D1050
:1022400044F8253030BD0A49086070470008014055
:10225000000C014000100140001401400018014032
:10226000001C01400020014000000140000020420D
:10227000DC00204230B504460020034600E05B1C31
:10228000934203D2E05CCD5C401BF8D030BD00002F
:10229000064C074D06E0E06840F0010394E80700B3
:1022A00098471034AC42F6D3FDF746FF14230008DC
:1022B00034230008014A024900F013B8DD0A00087F
:1022C0000C01002002E008C8121F08C1002AFAD140
:1022D00070477047002001E001C1121F002AFBD1A6
:1022E00070472DE9F04116460F460446002503E0ED
:1022F0003946B0476D1C641C20780028F8D1284668
:10230000BDE8F08130313233343536373839414227
:10231000434445463423000800000020100100001B
:10232000C42200084424000810010020702C000082
:10233000D42200080000000000000000000000009F
:102340000000000000000000000000000030020853
:102350000000000000500008000000000000000025
:1023600000000000D9070008000000000000000085
:10237000000000000000000000000000000000005D
:10238000000000000000000000000000000000004D
:10239000000000000000000000000000000000003D
:1023A000000000000000000000000000000000002D
:1023B000000000000000000000000000000000001D
:1023C000000000000000000000000000000000000D
:1023D00081070008810700088107000881070008BD
:1023E00081070008810700088107000881070008AD
:1023F000810700088107000881070008810700089D
:10240000810700088107000881070008810700088C
:10241000000000000000000000A24A0400000000CC
:102420000000000001020304060708090000000084
:102430000102030401020304060708090204060856
:042440000000000098
:044800005555555560
:0400000508000131BD
:00000001FF
:020000040800F2
:10500000B0440020F98A0008018B0008038B0008D7
:10501000058B0008078B0008098B000800000000C2
:105020000000000000000000000000000B8B0008E2
:105030000D8B0008000000004D5100082D6B00088A
:10504000138B0008138B0008138B0008138B0008C8
:10505000138B0008138B0008138B0008138B0008B8
:10506000138B0008138B0008138B0008138B0008A8
:10507000C7720008138B0008138B0008138B0008FD
:10508000138B0008138B0008138B0008138B000888
:10509000497D0008AB7F0008138B0008138B0008C4
:1050A000138B0008138B0008138B0008138B000868
:1050B000138B0008138B0008138B0008138B000858
:1050C000138B0008138B0008138B0008138B000848
:1050D000138B0008D96D0008D370000851720008C6
:1050E000138B0008138B0008138B0008138B000828
:1050F000138B0008138B0008138B0008138B000818
:10510000138B0008138B0008138B0008138B000807
:105110000588000879820008138B0008138B0008AB
:10512000138B0008138B0008138B0008138B0008E7
:10513000DFF80CD005F072FF00480047BD510008B1
:10514000B044002080F308887047000072B6EFF387
:1051500009800A4A0A4B20B1203880E8F00F116814
:10516000086018681060006890E8F00F203080F345
:1051700009884EF0040E62B6704700BF4801002057
:105180004C01002080F30988704700001248134941
:10519000086040F6AA201049086146F26A6048613A
:1051A0000F488861002008668867C86108654865FF
:1051B0004FF4B460886611204867704710B50948FD
:1051C0000949086062B6FFF7E1FF084908688047AF
:1051D00000F008FE002010BD28020020740000200E
:1051E000555501000050000808ED00E0780000204F
:1051F00010B572B64FF00060446801460868FFF7CA
:10520000A1FFA04710BDF8B505460E46002400BF1B
:1052100025E0285D7E280BD17D208DF8000002203E
:105220008DF80100FE480221826D6846904715E026
:10523000285D7D280AD18DF8000001208DF801003D
:10524000F7480221826D6846904707E0285D8DF897
:105250000000F3480121826D68469047641CB44207
:10526000D7D3F8BD2DE9F04780460D4617464FF4D9
:105270001671EC4805F0BFFC7E20EA490870381230
:1052800048708F70280AC8700D7101204871E64877
:105290000078E649097840EA4100E2498871E4482B
:1052A0000068000EC871E2480068000C0872E0480F
:1052B0000088000A4872DE4800788872DD4800885D
:1052C0000012C872DB48007808732A464146D54868
:1052D0000D3005F077FC01244FF0000904E0D148BF
:1052E000005D80EA0909641C05F10D00A042F6D8B2
:1052F000CC4901F800907E21401CCA4A1154002478
:10530000002628E01CB105F10E00A04204D1C548DA
:10531000005DC94988551CE0C248005D7E2807D160
:105320007D223046761CC4490A54022088550FE07D
:10533000BC48005D7D2807D17D223046761CBE49E1
:105340000A540120885503E0B648005DBA498855E3
:1053500000BF641C761C05F10E00A042D2D2B048FA
:105360003146826DB4489047B2480088401CB1492C
:105370000880BDE8F08770B504460D4601F0DCFBFF
:10538000001BA84201D3012070BD0020FCE710B52E
:105390006421AA480068FFF7EEFF28B100F02AFF59
:1053A00001F0CAFBA549086010BD38B59C48016CE6
:1053B0000A20884700200090994800235A1EA049DF
:1053C000446C1846A04700200090954800235A1EC0
:1053D0009C49446C0120A047002000909048002385
:1053E0005A1E9949446C0220A047002000908C4826
:1053F00000235A1E9549446C0320A04700200090CA
:10540000874800235A1E9249446C0420A04700207C
:105410000090834801239A1E8E49446C0520A047C2
:10542000002000907E4801239A1E8B49446C062080
:10543000A047002000907A4801239A1E8749446CB7
:105440000720A04700200090754801239A1E844938
:10545000446C0820A04700200090714801239A1E48
:105460008049446C0920A04738BD7F48806830B926
:105470007E480068012800D170470020FCE77A4888
:10548000C068012801D10020F6E779480078C928D2
:1054900004D07548406E08B10020EDE773480068FD
:1054A000012800D1E8E70020E6E71CB571A103C997
:1054B000CDE900015A4808226946836C6448FD38EA
:1054C00098471CBD10B504466C48007820B11CB943
:1054D0006B480068C06908B968480470674800787C
:1054E00000B910BD142167480068FFF744FF28B1D8
:1054F000FFF7DBFF01F020FB6249086000BFF0E727
:1055000010B5FFF7B2FF0446FFF7DCFF10BD3EB554
:105510000446012C14D15C480068002834D15B4853
:105520000068002830D10120574908603C48C16A12
:105530000020884701F000FB5549086000203EBD6F
:10554000022C21D151480068F0B94F480068032867
:1055500019D150A207CA8DE8070049F604720A2142
:105560006846FFF77FFE2E48816B012088472C4953
:10557000486D804701204549086001F0DDFA48493F
:1055800008600020DBE700BF40480068012813D115
:1055900042F2107142480068FFF7EDFE60B120480A
:1055A000C16A0020884700203749086037490860F1
:1055B00001F0C2FA3A49086033480068012816D160
:1055C0004FF4FA6132480068FFF7D5FE30B3144853
:1055D000C16A012088471248416B01208847022098
:1055E0002949086001F0A8FA2949086064E02648C2
:1055F0000068022860D14FF4FA6125480068FFF77F
:10560000BAFE58B10648416B002088470448816BB8
:10561000002088470249086D804743E04CE00000C5
:1056200078000020B00200201E0000201F00002093
:10563000E80100202A000020080500202C0000209E
:105640000004F00C00F1FE180099FF18EE6CFE0C3F
:105650000003F00C1703FF18173E1F1C1700FF185C
:1056600000F2FE18FF17FE1828020020000000209C
:105670000F000020FFFFFFFFFFFFFFFF34000020AF
:1056800074000020380000205C0000206000002032
:1056900054000020AA010001FFFFFFEE06BD00003C
:1056A00058000020012000F009F80320FB490860A1
:1056B00001F042FAFA490860002040E710B50446BC
:1056C00024B101F039FAF749086010BDF649F548F0
:1056D0000068FFF750FE30B10220FFF718FF01F01D
:1056E0002BFAF049086000BFEFE72DE9F04786B0DC
:1056F000EE4C4FF0000AEE480668092E02D806B0BC
:10570000BDE8F0870322EB49204605F07FFA40B15F
:105710000020E74908604FF48061E44805F06BFA27
:10572000EDE70422E349091D201D05F06FFA40B1A1
:105730000020DF4908604FF48061DC4805F05BFA27
:10574000DDE794F80390257AF02D03D0F12D01D0F8
:10575000F22D0CD10B2E00D2D1E7617AA27A41EA68
:10576000022000F10C018E4200D2C8E718E00B2D98
:1057700004D140F21E20864212D2C0E709F109008E
:10578000864200D2BBE709F10900864208D000201A
:10579000C74908604FF48061C44805F02CFAAEE7B1
:1057A0000120FFF78BFF0120C3490870082D02D1AB
:1057B000FFF71EFDDCE1F22D0DD1607AA17A40EAFF
:1057C0000128BE484146D0F8842004F10B009047E0
:1057D0004FF0010ACCE1F12D20D1E07AB0B1207B6D
:1057E000B7494866B548D0F89810B548643088473E
:1057F00060B9B249D1F894008047207BB04948662F
:10580000AE48D0F89810AE4864308847607B10B13D
:10581000A07BAC4908704FF0010AA9E1F02D0CD132
:10582000607AA17A40EA0128A4484146C26F04F197
:105830000B0090474FF0010A9AE1012D41D1607AA7
:10584000012819D100209E49C8609C48D0F89810C2
:105850009B480C30884760B99849D1F8940080473C
:1058600000209749C8609548D0F8981094480C30AB
:105870008847FFF745FE21E0607AC8B901209049CA
:10588000C8608E48D0F898108D480C30884760B9B1
:105890008A49D1F89400804701208949C860874827
:1058A000D0F8981086480C308847FFF729FE05E0AD
:1058B00049F61F720B218448FFF7D4FC4FF0010A10
:1058C00056E1022D0BD1A07A000280490880607A4F
:1058D000098808447D4908804FF0010A48E1032DFA
:1058E00039D194F80980B8F1030F31DA744880682F
:1058F00040452DD07248C0F808807048D0F8981004
:105900006F480830884760B96C49D1F894008047E7
:105910006B48C0F808806948D0F89810684808308B
:1059200088470020664908606448D0F898106448A9
:10593000884758B96149D1F89400804700206049F0
:1059400008605E48D0F898105D488847FFF7D8FD9A
:105950004FF0010A0CE1042D08D149F61F720B210A
:105960005948FFF77FFC4FF0010A01E1052D1DD1D9
:10597000607A012807D15148016B01208847012036
:105980004F4908660FE0607A38B94C48016B002037
:10599000884700204A49086605E049F61F720B2136
:1059A0004948FFF75FFC4FF0010AE1E0062D02D104
:1059B0004FF0010ADCE0072D40D14FF0000814221F
:1059C00043A101A805F0FEF802F00CFE3C4890F857
:1059D00086008DF80D003A48B0F8860000128DF868
:1059E0000E00374890F885008DF80F00344890F885
:1059F00083008DF81000324890F882008DF8110075
:105A00002F4890F881008DF812002D4890F8800002
:105A10008DF81300002704E001A8C05D80EA0808A3
:105A20007F1C102FF8D38DF8148049F605721121D0
:105A300001A8FFF717FC4FF0010A99E0092D08D1E2
:105A400049F61F720B212048FFF70CFC4FF0010AAA
:105A50008EE00D2D02D14FF0010A89E00E2D41D1CB
:105A6000607A012806D11649C8661448C16B012026
:105A700088470FE0607A38B900201149C8660F489E
:105A8000C16B0020884705E049F61F720B210E48C4
:105A9000FFF7E8FB4FF0010A6AE000005C0000201D
:105AA0005400002050000020E0930400E424002073
:105AB000B0010020220000202000002078000020FB
:105AC00028020020210000200400002010000020F7
:105AD000AA010008FFFFFFEE070000000000000021
:105AE000B50000000F2D09D1E548017849F607728D
:105AF000401CFFF7B7FB4FF0010A39E0EE2D02D151
:105B00004FF0010A34E0EF2D02D14FF0010A2FE0EF
:105B1000ED2D02D14FF0010A2AE0F02D02D14FF015
:105B2000010A25E0FF2D1BD1607A00F5FA60D54906
:105B3000A1F88600A17AD34880F88510E17A80F830
:105B40008310217B80F88210617B80F88110A07B1C
:105B5000CC4981F8800002F045FD4FF0010A07E0D2
:105B600049F61F720B21C848FFF77CFB4FF0010A72
:105B7000BAF1000F07D00020C44908604FF48061DB
:105B8000C34805F038F800BFB9E51CB5C1A103C989
:105B9000CDE900014FF49654E0B28DF801002012D7
:105BA0008DF80200BD4808226946836CBC489847BE
:105BB0001CBD10B5BB480088BB490968884213D298
:105BC000B848008800280FDD0120AE49C8651421BF
:105BD000B6480068FFF7CFFB28B1FFF7D6FF00F00B
:105BE000ABFFB249086010BD0020A649C86500BFE0
:105BF000F9E710B5AE480078C043AD4908700846D3
:105C0000007858B1002001F022FD18B90120A949FF
:105C1000087039E00020A749087035E0A5480078F1
:105C2000012818D10020A4490880A4480088B0F5B4
:105C3000967F05DAA1480088401CA049088023E02F
:105C40009E480088B0F5967F1ED14FF6FF709B49A5
:105C50000880012010BD00209849088096480088DF
:105C6000B0F57A7F05DA94480088401C9249088094
:105C70000AE091480088B0F57A7F05D14FF6FF70B1
:105C80008D4908800220E5E70020E3E710B58C4845
:105C90000078C0438A4908700846007858B102204D
:105CA00001F0D5FC012802D18649087038E00020B7
:105CB0008449087034E083480078012818D1002016
:105CC0008149087081480078142805DA7F480078F7
:105CD000401C7E49087023E07C48007814281FD1BE
:105CE000FF207A490870012079490968886417E023
:105CF00000207649087074480078142805DA724844
:105D00000078401C704908700AE06F480078142839
:105D100006D1FF206C49087000206D49096888642D
:105D2000002010BD10B56B480078C0436949087069
:105D30000846007858B1012001F089FC012802D101
:105D40006549087038E000206349087034E0624813
:105D50000078012818D10020604908706048007858
:105D6000142805DA5E480078401C5D49087023E07D
:105D70005B48007814281FD1FF2059490870012082
:105D800053490968C86417E0002055490870534812
:105D90000078142805DA51480078401C4F490870F3
:105DA0000AE04E480078142806D1FF204B490870BD
:105DB000002047490968C864002010BD10B50A21B9
:105DC00048480068FFF7D7FA50B100F0B5FE4549E2
:105DD0000860FFF75BFFFFF7A5FFFFF70AFF10BDA5
:105DE0000020FCE7FFF7E1FA0120FFF767FC2B49F1
:105DF000886F804742E0FFF7E1FF044654B33A481A
:105E00000068A04226D038480460012C12D101203D
:105E10001C49086564203549087000203449087021
:105E20004021174804F0E7FE00203249087032494B
:105E300008700FE000201349086564202B490870A2
:105E4000CA202D49087000200E49C8661348C16B4E
:105E50000020884724480068FFF759FB00F0BEF98E
:105E6000FFF743FCFFF74CFBFFF7A3FE00F079F9C7
:105E7000FFF78DFA0020FFF721FC00BFBBE7000011
:105E8000B80900202802002004000020B0010020F2
:105E9000E424002003C012FFFFFFFFFF7800002072
:105EA0000300000C1000002014000020300000202F
:105EB0003D0000203C000020400000203E0000206B
:105EC0004300002042000020450000204400002044
:105ED00074000020470000204600002049000020F8
:105EE000480000204C000020000000201D00002081
:105EF00021000020200000200F0000201FB50020FE
:105F00000090019002900390AA48006890F83C002D
:105F10008DF80000A848006F58B9A648006890F8AE
:105F200024008DF80100A3480068406AA349086076
:105F300014E0A148006F012810D19E48006890F835
:105F400028008DF801009B480068008D000A8DF83C
:105F5000020098480068806A98490860954800687F
:105F6000007F8DF8030093480068808B000A8DF84D
:105F700004009048006890F820008DF805008D48D6
:105F8000006890F834008DF806008A48006890F8A0
:105F900044008DF8070087480068B0F84400000A04
:105FA0008DF808008348006890F87C008DF809009F
:105FB00080480068B0F87C00000A8DF80A007D482F
:105FC0000068007C8DF80B007A480068008A000A9F
:105FD0008DF80C0049F601720D216846FFF742F971
:105FE0001FBD0EB50020009001900290714800681E
:105FF00090F84800C007800F8DF800009DF8000061
:106000006C49096891F82C1001F001010844C0B2F4
:106010008DF800006748006890F84C00C007400FFA
:106020008DF801009DF801006249096891F830106F
:1060300001F003010844C0B28DF801006048006817
:10604000C0B28DF802005C4890F858008DF803004B
:106050005848006890F838008DF8040055480068EA
:1060600090F840008DF8050052480068B0F84000F4
:10607000000A8DF806004F480068007D8DF8070083
:106080004C480068808A000A8DF808004D48007866
:106090008DF809004C4800788DF80A00464890F8C1
:1060A00064008DF80B0049F602720C216846FFF778
:1060B000D9F80EBD002070471FB500200090019058
:1060C000029003903C4890F874008DF800003A4824
:1060D000007A8DF801003848007B8DF802003B48BB
:1060E0000088C0B28DF80300334890F860008DF846
:1060F0000400314890F850008DF805002E4890F8C3
:1061000068008DF806002C48B0F86800000A8DF889
:106110000700294890F86C008DF8080000208DF8E1
:1061200009008DF80A0023480068007E8DF80B00F6
:1061300020480068008B000A8DF80C001D4800689C
:106140008069000C8DF80D001A4800688069000E07
:106150008DF80E0049F603720F216846FFF782F8AA
:106160001FBD10B54FF4FA7119480068FFF703F925
:1061700028B1FFF7C3FE00F0DFFC154908604FF4BB
:106180007A7114480068FFF7F6F828B1FFF729FF85
:1061900000F0D2FC0F4908604FF47A710E48006895
:1061A000FFF7E9F828B1FFF787FF00F0C5FC0A49BF
:1061B000086010BD74000020280200201400002098
:1061C000180000200F0000202100002010000020F7
:1061D00064000020680000206C0000207047074821
:1061E0000078C92803D0C9200449087001E0034899
:1061F0000078704700B5FFF7F2FF00BD0F000020E8
:10620000704700BF0100A0F10100FBD1704700B54D
:10621000034602E00820FFF7F4FF1800A3F1010392
:10622000F8D100BD00B5034603E04FF4FA50FFF784
:10623000E8FF1800A3F10103F7D100BD10B5044633
:10624000102C02DB11A004F0B9FF102C02DA144864
:10625000005D10BD3020FCE713B504468DF8074003
:106260001048D0F8B810019888471CBD10B50E48EA
:1062700000F07F400D4908600D4800F07F400C4958
:10628000086000F01DF900F071F910BD0A41535388
:106290004552543A20686578203C2031360A000087
:1062A000E0BA0008780000206D620008400100207C
:1062B0004401002002464FF080700860081F01462C
:1062C00002606FF00103081F014603604FF01233B4
:1062D000081F014603604FF00333081F01460360A7
:1062E0004FF00233081F014603605B10081F014690
:1062F00003600023081F014603604FF01133081F9D
:10630000014603604FF01033081F014603604FF051
:106310000933081F014603604FF00833081F014688
:1063200003604FF00733081F014603604FF0063348
:10633000081F014603604FF00533081F0146036044
:106340004FF00433081F01460360084670470160A0
:10635000002242608260704770B504466949204659
:10636000FFF7A8FF054629466748FFF7F0FF70BD15
:1063700070B5044665492046FFF79CFF054629464F
:106380006348FFF7E4FF70BD62490968884205D0A1
:10639000614908604FF08051604A1160704710B544
:1063A0005948806850B158488068401E56498860F6
:1063B0000846806810B90846FFF7E6FF10BD584848
:1063C0005849D0F8A820012090474F48514908600B
:1063D00008460068504908604FF080504F490860F7
:1063E00062B600BFFEE7014672B64F480088401C07
:1063F0004D4A10804D48008A282809DB1046008845
:10640000401E0004000C108000D162B600207047CE
:106410004648008A401C454A108210468068016048
:1064200010468068001D9060104680685268904257
:1064300003D93E4800683D4A90603B480088401EB2
:106440000004000C384A108000D162B60120DEE75B
:1064500001463648008A002826DD72B63248008898
:10646000401C314A10803148C068006808602F48DD
:10647000C068001D2D4AD0601046008A401E108260
:106480001046C0685268904203D928480068274ADD
:10649000D06025480088401E0004000C224A10806D
:1064A00000D162B6012070470020FCE710B5044619
:1064B000002C04DD144884601548FFF765FF10BD0B
:1064C0001B481A4908609C3048600846006888608C
:1064D00008460068C8600020088216481049C1F8C4
:1064E000AC0015490E48C0F8B0101449C0F8B410FB
:1064F0001349C0F8BC101349C0F8B8101249C0F8CD
:10650000C0107047EC100020301700202C1700201E
:106510003C170020480100204C01002004ED00E061
:10652000780000209F63000870000020F809002018
:106530000C0A00205963000871630008BF6300085B
:1065400051640008E7630008AD64000810B5002836
:1065500007DA0A07140E244A00F00F031B1FD45455
:1065600003E00A07130E214A135410BD08B500F0CA
:10657000B3FC02F06AF901F08EFE01F095FB02F027
:1065800041F800F0CAF84FF47A70FFF74BFE00F0C4
:106590005AFA00F0A4FF0121102003F047F8102060
:1065A000ADF8000000208DF803006946104802F0A5
:1065B00087FD2020ADF8000000208DF8030069461B
:1065C0000B4802F07DFD00F0BAFA4FF4A06002F033
:1065D000A9FC0E214FF0FF30FFF7B8FF0F216FF03D
:1065E0000100FFF7B3FF08BD18ED00E000E400E094
:1065F0000010014070B500244C48006800B970BD1F
:106600004A48056841E015F0010F3CD004EB440016
:10661000474951F82000401E04EB4401444A42F827
:10662000210030D1012C07D00120A0403F4909684A
:1066300081433E4801600CE0012C0AD104EB440088
:106640003B4901EB8000406804EB4401384A42F8C2
:10665000210038480068E04010F0010F0CD004EB36
:106660004400334A02EB80008068334A1268811A82
:106670000120FFF7F1FD06E004EB44012C4A02EB98
:106680008101886880476D08641C002DBBD100BF64
:10669000B5E730B5044625480068E04010F0010F2A
:1066A00001D0002030BD04EB4400214D45F82020EE
:1066B00004EB440005EB8000426004EB440005EB72
:1066C0008000836039B10120A0401A4D2D68284315
:1066D000184D286006E00120A040164D2D68854326
:1066E000144805600120A040104D2D6828430F4D2F
:1066F00028600120D6E701460C480068C84010F029
:10670000010F01D10020704701208840074A12681C
:106710008243064802600120F5E708490848C0F8AE
:106720008C100849C0F890107047000050010020FC
:106730004817002054010020400100209366000803
:1067400078000020F766000810B502F0F6FF35204B
:1067500003F08EFA10BD10B502F0FBFF10BD70B54E
:10676000ADF5816D002416E0C148006850F8340092
:10677000401C0ED0BE48006850F834004DF824008C
:10678000BB48006800EBC40040685DF82410086056
:1067900000E002E0641CFF2CE6DD00BFB5494C8040
:1067A0004FF48070888008464088022803DA084643
:1067B0004088088052E00026002413E0651C0BE0AE
:1067C0005DF824005DF82510884204D100204DF8C2
:1067D0002400012604E06D1CA6484088A842EFDC96
:1067E00000BF641CA3484088401EA042E6DC26B9D6
:1067F000A04840889F49088030E0FFF7A5FF9E48E9
:1068000002F0E0FF0025002420E05DF8240000B93C
:106810001BE05DF82400CDF800045DF8240000685A
:10682000CDF80404924ADDF80014126802EBC500AA
:1068300003F098F88E4ADDF80414126802EBC502E2
:10684000101D03F08FF86D1C00BF641C8948408840
:10685000A042DADCFFF77FFF86490D80854800887B
:106860008449C8800DF5816D70BD70B5044625461C
:106870000CB9002070BD7F48C0887E498988884255
:1068800001D10020F6E7FFF75FFF7A49C988784A0F
:10689000126802EBC100294603F064F8754AD288F9
:1068A000734B29681B6803EBC202101D03F05AF8F2
:1068B000FFF751FF6F48C088401C6E49C880012017
:1068C000D8E74FF4C0526D4B5A816D4A1A601A4690
:1068D00012685A6000221A816949002009E00A788A
:1068E000FF2A04D1654A51601346188104E0491C0F
:1068F000401CB0F5C05FF2DB00BF704710B5FFF77A
:1069000023FF002405E05E4901EBC42002F05AFF9A
:10691000641C032CF7DBFFF71EFF5948574908603A
:1069200048600020088110BD10B50246544908781F
:10693000FF2801D153A010BD1AB951484F4C206017
:10694000F9E7501C18D14D480368016800BF11F8E1
:10695000014B002CFBDC087800B9491C0878FF28A3
:1069600002D04548814203D94548444C206001E0AB
:10697000424801601846DEE7002A1DDD0EE0087877
:10698000FF2801D13FA0D6E700BF08780028FCDC33
:10699000491C00BF08780028FCD0491C1000A2F157
:1069A0000102ECD10878FF2802D03348814201D996
:1069B00034A0C0E70846BEE734A0BCE70FB4F0B58A
:1069C0009BB001AE002503E0002026F8020B6D1CF1
:1069D000322DF9DB21A81A9001A81A9A209904F007
:1069E000F5FB044600201A901CB91BB0F0BC5DF802
:1069F00014FB641C14F0010F00D0641C1F480089B4
:106A00002044B0F5C05F01DB0020EEE7671001AE67
:106A1000FFF79AFE00250BE03188184A506802F013
:106A2000D4FF16484068801C14494860B61C6D1C91
:106A3000BD42F1DBFFF78FFE1048008920440F496B
:106A400008810120D1E710B5FFF789FE13491448EA
:106A5000C0F894101349C0F898101349C0F89C105E
:106A60001249C0F8A0101249C0F8A41010BD0000CF
:106A7000580100205C01002000F00308C818002025
:106A800000D803084E756C6C0A00000041726775EF
:106A90006D656E744572726F720A00005F67000860
:106AA000780000206B680008FD680008296900086C
:106AB000BD69000810B502462AB3012A12D0022A85
:106AC00032D1354800780A2801D1002010BD324863
:106AD00003780078401C304C2070304840F8231078
:106AE0000120F3E72E480078042801D10020EDE7CB
:106AF0002B4803780078401C294C2070294840F826
:106B000023100120E2E728480078022801D1002064
:106B1000DCE7254803780078401C234C207023488C
:106B200040F823100120D1E70020CFE7204800687B
:106B3000401C1F49086070471D480068704730B509
:106B40001C4800684FF47A72B0FBF2F1B1F1807F1B
:106B500000D31BE021F07F40401E4FF0E022506147
:106B600050170F22002806DA1301134C00F00F050E
:106B70002D1F635502E01301104C235400BF002069
:106B80004FF0E02290610720106100BF0C490D48D2
:106B9000C0F8A81030BD0000A80100207C01002032
:106BA000A90100206C010020AA010020640100203E
:106BB000A4010020FC01002018ED00E000E400E04A
:106BC000B56A000878000020E448E549086000F252
:106BD000E730486008460068886008460068C8607A
:106BE000002008827047DF48DF49086000F2FF702C
:106BF000486008460068886008460068C860002051
:106C0000088270470146D648008AB0F57A7F01DBDA
:106C100000207047D24880680170D1488068401CCD
:106C2000CF4A9060104680685268904203D9CC48A1
:106C30000068CB4A906072B6CC480088401CCB4AB2
:106C40001080C748008A401CC54A1082C748008887
:106C5000401E0004000CC54A108000D162B601201D
:106C6000D7E770B504460D464DB103E014F8010BAB
:106C7000FFF7C8FF2800A5F10105F7D10DE009E0F5
:106C800020780A2802D10D20FFF7BCFF14F8010B71
:106C9000FFF7B8FF20780028F2D170BD70B5044628
:106CA0000D460A2C02D10D20FFF7ACFFE0B2FFF732
:106CB000A9FF204670BD10B50246AD4B1B7803B945
:106CC00010BD002012E0AA4B1B7803B9F8E703E0DF
:106CD000A74B1B7803B9F3E7A64B1B8813F0400FB3
:106CE000F6D0135CA34C241D2380401C8842EAD3B9
:106CF00003E09F4B1B7803B9E2E79E4B1B8813F020
:106D0000400FF6D000BFDBE79748008A7047014686
:106D10009548008A08B9002070479348C0680078F9
:106D200008709148C068401C8F4AD0601046C06807
:106D30005268904203D98C4800688B4AD06072B682
:106D40008A480088401C894A10808748008A401E73
:106D5000854A108285480088401E0004000C834A42
:106D6000108000D162B60120D6E710B503460A466E
:106D70007D48008A90422BD3002126E07A48C068E3
:106D8000007858547848C068401C774CE060204632
:106D9000C0686468A04203D973480068724CE06020
:106DA00072B672480088401C704C20806E48008A81
:106DB000401E6D4C20826D480088401E0004000C6F
:106DC0006A4C208000D162B6491C9142D6D301E0C2
:106DD000002010BD0120FCE710B540F225516548A8
:106DE00002F05CF8E8B1634801F0D8FFC4B2624831
:106DF000006810B9AA2C00D010BD5F490868411C7A
:106E00005D4A11605D490C5410460068B0F5806F12
:106E100002D300201146086040F22551554802F087
:106E200067F80821534802F023F8012802D151489D
:106E300001F0B4FF00BFDFE708B50121052002F033
:106E4000F5FB4FF40070ADF8000003208DF8020050
:106E500018208DF803006946494802F031F94FF4D3
:106E60008060ADF8000048208DF803006946444872
:106E700002F026F9012240F225513E4801F029FF97
:106E800001213C4801F019FF01203949087008BD73
:106E900008B50020364908700121052002F0C6FB24
:106EA0004FF4C060ADF8000004208DF8030003200B
:106EB0008DF802006946324802F002F9002240F2E1
:106EC00025512C4801F005FF00212A4801F0F5FE6C
:106ED00008BD2C490860704700B585B001218803C2
:106EE00002F0A4FBFFF77FFE25208DF800000320B1
:106EF0008DF8010002208DF8020001208DF80300BA
:106F0000684602F014F84FF4E13001900020ADF82B
:106F10000800ADF80A00ADF80C00ADF810000C2028
:106F2000ADF80E0001A9134801F03BFE012240F22A
:106F30002551104801F0CDFE01210E4801F0BDFEA3
:106F4000FFF742FEFFF7A4FF0F4910480165104903
:106F500041651049816505B000BD0000E8180020BA
:106F6000D4180020E41C0020D01C00207000002059
:106F7000AC01002000380140B0010020E4240020D2
:106F800000080140B4010020396E0008780000209C
:106F9000916E0008B76C00089E489F49086000F297
:106FA000FF10486008460068886008460068C860AE
:106FB000002008827047994908607047014696484A
:106FC000008AB0F5007F01DB00207047924880689E
:106FD000017091488068401C8F4A9060104680681C
:106FE0005268904203D98C4800688B4A906072B610
:106FF0008B480088401C8A4A10808748008A401CC1
:10700000854A108286480088401E0004000C844A8D
:10701000108000D162B60120D7E770B504460D4656
:107020004DB103E014F8010BFFF7C8FF2800A5F1EC
:107030000105F7D10DE009E020780A2802D10D20E2
:10704000FFF7BCFF14F8010BFFF7B8FF207800280A
:10705000F2D170BD7048008A00B97047714800884D
:1070600010F0400F00D1F8E76F48007801280BD1ED
:107070006948C06800786B49091D08806648C06887
:10708000401C6549C86004E06348C068401C624910
:10709000C8606148C06860494968884203D95E4851
:1070A00000685D49C86072B65D480088401C5C4954
:1070B00008805948008A401E57490882584800886D
:1070C000401E0004000C5649088000D162B600BF83
:1070D000C3E710B540F22551524801F0DFFE18B168
:1070E000504801F05BFEC4B208214E4801F0C0FEDA
:1070F000012802D14B4801F051FE10BD08B5012115
:10710000052002F093FA0420ADF8000003208DF86A
:10711000020018208DF803006946444801F0D0FFB2
:107120000820ADF8000048208DF8030069463F486C
:1071300001F0C6FF012240F225513A4801F0C9FD95
:107140000121384801F0B9FD01203749087008BD18
:1071500008B50020344908700121052002F066FAC4
:107160000C20ADF8000004208DF8030003208DF8FA
:10717000020069462D4801F0A3FF002240F225518C
:10718000284801F0A6FD0021264801F096FD08BD23
:1071900000B585B00121480402F055FA26208DF88B
:1071A000000003208DF801008DF8020001208DF809
:1071B0000300684601F0BBFE4FF4E130019000206F
:1071C000ADF80800ADF80A00ADF80C00ADF81000FD
:1071D0000C20ADF80E0001A9124801F0E2FC0122DA
:1071E00040F225510F4801F074FD01210D4801F0D6
:1071F00064FDFFF7D1FEFFF7ABFF0D490D48416677
:107200000D4981660D49C1660D49C1650D4901668B
:1072100005B000BDF8280020E4280020BC010020B3
:107220007000002000440040B80100200008014028
:10723000B76F000878000020BD6F00081B700008C1
:10724000FD70000851710008704779490860704767
:1072500070B57848048814F0400F08D000207649B3
:107260000860024640F22661724801F032FD14F0D7
:10727000200F07D06F4801F091FDC5B228466C4938
:107280000968884714F0080F02D06A4801F086FDAB
:1072900070BD70B505460C460120674908604FF087
:1072A0000001664802F0D5FD64481C38856204621E
:1072B000002240F226615F4801F00BFD01215F488A
:1072C00002F0C7FD70BD10B5202002F0FBFD0128C3
:1072D0000CD1202002F009FE4021564801F0D5FDD6
:1072E000012240F22661534801F0F3FC10BD00B5C5
:1072F00091B00121092002F099F90121880402F0DE
:10730000A2F900204C4908604FF48070ADF84000AD
:107310004FF002008DF842004FF010008DF843004E
:1073200010A9474801F0CCFE4FF48060ADF8400052
:1073300003208DF8420018208DF8430010A9404822
:1073400001F0BEFE4FF40060ADF8400048208DF81B
:10735000430010A93A4801F0B3FE27208DF82C0015
:1073600003208DF82D008DF82E0001208DF82F00C0
:107370000BA801F0DCFD4FF4E1300C900020ADF8DB
:107380003400ADF83600ADF83800ADF83C000C2004
:10739000ADF83A000CA9274801F003FC012240F2A5
:1073A0002551244801F095FC0121224801F085FC7B
:1073B0000C208DF82C0002208DF82D008DF82E0069
:1073C00001208DF82F000BA801F0B1FD0121084626
:1073D00002F01FF9194802F06FFC1648001D0090DA
:1073E00000200190102002900820039000200490BB
:1073F0008020059000200690079008904FF40050E0
:10740000099000200A9069460C4802F0F7FC01221E
:1074100002210A4802F029FD01228021054801F0DD
:107420007DFC0849084801670849416711B000BD63
:10743000C001002000480040A08121421C00024001
:10744000000C01404B720008780000209372000885
:107450008D4800680068012800D170470020FCE7D3
:1074600020B10121894A1268116003E00021874A96
:1074700012681160704720B90021854A12681160B6
:1074800005E0012803D10121814A1268116070478B
:1074900020B900217F4A1268116005E0012803D15C
:1074A00001217C4A12681160704720B900217A4A94
:1074B0001268116005E0012803D10121764A1268A3
:1074C0001160704720B90021744A1268116005E00C
:1074D000012803D10121714A12681160704708B573
:1074E00001216F4801F0BBFE6E486F4908606F488C
:1074F000664908606E48644908606D489830644980
:107500000860684818306B490860001D6A490860C7
:107510006448A0305F490860624894305E49086062
:10752000624814305D49086001211C2002F07EF899
:1075300000205649096808605849096808604220D7
:10754000ADF8000010208DF8030002208DF8020035
:1075500069465A4801F0B4FD0120ADF8000004204E
:107560008DF8030003208DF802006946544801F0AD
:10757000A7FD0220ADF8000048208DF8030003208D
:107580008DF8020069464F4801F09AFD00204049FD
:10759000096808608020ADF8000010208DF8030015
:1075A00002208DF802006946464801F089FD00205E
:1075B00038490968086001203749096808604FF4B4
:1075C0009070ADF8000010208DF8030002208DF8B7
:1075D000020069463A4801F073FDC020ADF8000092
:1075E00004208DF8030003208DF80200694634481A
:1075F00001F066FD344935488162AFF29B11C162EA
:107600003349016333494163334981633349C1637A
:1076100008BD021F052A18D2DFE802F003070B0F8E
:1076200013001A4A126811600FE0194A12681160BB
:107630000BE0184A1268116007E0174A12681160DF
:1076400003E0164A1268116000BF00BF7047014690
:1076500031B101290CD002290ED0032910D103E049
:107660001148006800687047074800680068FAE73A
:10767000104800680068F6E70F4800680068F2E705
:1076800000BF00BFEFE70000C4010020D4010020CC
:10769000D8010020DC010020E0010020E4010020EE
:1076A0000004300000012142C801002084812142F1
:1076B00004012242CC010020D0010020000C014036
:1076C00000080140001001405174000878000020BB
:1076D0007774000891740008AB740008C574000842
:1076E00030B585B005460021FE4803F080F810B99A
:1076F000002005B030BD6A460021FA4802F0F4FFD0
:10770000002404E00DF10B00005D2855641C082CDA
:10771000F8D39DF80A00ECE72DE9F04385B0074661
:107720008846154600200090019704208DF8080037
:1077300000208DF809008DF80A50002405E018F8A3
:1077400004100DF10B000155641CAC42F7D36946DF
:10775000E44802F0D5FE0646002400E0641C3146F1
:10776000E04802F065FF012803D040F6FF70844234
:10777000F4D340F6FF70844209D34FF00009D94892
:1077800003F0BCF88146002005B0BDE8F08301207D
:10779000FAE73EB5044600208DF8060001208DF87A
:1077A000070000208DF8080001208DF80900002056
:1077B0008DF80A008DF80B008DF802000F2C73D2A3
:1077C000DFE804F0081624313E4B586573808D9A2B
:1077D000A7B4C10001208DF8030005208DF8040036
:1077E00003208DF805004FF41670ADF80000B8E0E6
:1077F00000208DF8030002208DF8040001208DF890
:1078000005004FF41670ADF80000AAE000208DF8D6
:10781000030009208DF8040006208DF8050064207F
:10782000ADF800009DE000208DF8030002208DF8E7
:10783000040001208DF80500F020ADF8000090E074
:1078400000208DF8030002208DF8040001208DF83F
:1078500005009620ADF8000083E000208DF80300BD
:1078600009208DF8040006208DF805002820ADF8C9
:10787000000076E000208DF8030002208DF804005F
:1078800001208DF805004B20ADF8000069E00020D4
:107890008DF8030009208DF8040006208DF80500FE
:1078A0001420ADF800005CE05AE000208DF80300E1
:1078B00002208DF8040001208DF805003020ADF87D
:1078C00000004EE000208DF8030007208DF8040032
:1078D00006208DF805000920ADF8000041E00020E9
:1078E0008DF8030002208DF8040001208DF80500BA
:1078F0001820ADF8000034E000208DF803000420CB
:107900008DF8040002208DF805000A20ADF8000073
:1079100027E000208DF8030005208DF804000420E6
:107920008DF805000620ADF800001AE000208DF863
:10793000030004208DF8040002208DF805000520C6
:10794000ADF800000DE000208DF8030002208DF856
:10795000040001208DF805000620ADF8000000E0CD
:1079600000BF00BF69465F4802F051FC3EBD2DE9F3
:10797000FF4106460C4615461F46DDF828800D2EB1
:1079800003D9002004B0BDE8F081F0B28DF80A0000
:1079900000208DF80B0001208DF80C00B8F1090FC4
:1079A00075D2DFE808F0051B32485F758AA1B60082
:1079B000C4F34F30ADF80000042000EBC40080B2E7
:1079C000ADF80200C5F34F30ADF80400042000EB21
:1079D000C500801C80B2ADF80600B0E0C4F34F30A3
:1079E000ADF80000042000EBC400801C80B2ADF8AC
:1079F0000200C5F34F30ADF80400042000EBC500D1
:107A0000801C80B2ADF8060099E06005000CADF86E
:107A10000000002040EA445080B2ADF80200680542
:107A2000000CADF80400042000EB4550801C80B22F
:107A3000ADF8060083E06005000CADF80000002002
:107A400040EA4450801C80B2ADF802006805000C8A
:107A5000ADF80400042000EB4550801C80B2ADF866
:107A600006006CE0C4F34F30ADF80000042000EBDA
:107A7000C40080B2ADF80200C5F34F30ADF8040089
:107A8000042000EBC50080B2ADF8060057E055E0D9
:107A90006005000CADF80000002040EA445080B2C0
:107AA000ADF802006805000CADF80400042000EBFE
:107AB000455080B2ADF8060041E0C4F34F30ADF858
:107AC0000000002040EAC40080B2ADF80200C5F317
:107AD0004F30ADF80400022000EBC50080B2ADF8D5
:107AE00006002CE000640040C4F34F30ADF8000005
:107AF000022000EBC40080B2ADF80200C5F34F30A5
:107B0000ADF80400022000EBC50080B2ADF806001D
:107B100015E0C4F34F30ADF800004FF6FF7000EAF7
:107B2000C400ADF80200C5F34F30ADF804004FF6C5
:107B3000FF7000EAC500ADF8060000E000BF00BF1E
:107B4000ADF8087001208DF80D00684602F0E9FBE1
:107B5000012017E73EB5FC4802F040FB0121480632
:107B600001F071FD0121092001F060FD01214FF4B8
:107B7000EA1001F074FB4FF48070ADF808000320A8
:107B80008DF80A0048208DF80B0002A9EF4801F09B
:107B900097FA4FF40070ADF8080018208DF80B002C
:107BA00002A9EA4801F08CFA01221221E64802F00B
:107BB000B6FE14208DF8040001208DF80500002089
:107BC0008DF8060001208DF8070001A801F0AFF93B
:107BD00015208DF8040001208DF805008DF80600B1
:107BE0008DF8070001A801F0A2F9D948016C0A201C
:107BF000884700200090D64800235A1ED549446C7F
:107C00001846A04700200090D14800235A1ED249B0
:107C1000446C0120A04700200090CD4800235A1E4C
:107C2000CE49446C0220A04700200090C8480023A1
:107C30005A1ECB49446C0320A04700200090C44842
:107C400000235A1EC749446C0420A047002000901E
:107C5000BF4801239A1EC449446C0520A047002058
:107C60000090BB4801239A1EC049446C0620A047DF
:107C700000200090B64801239A1EBD49446C07209D
:107C8000A04700200090B24801239A1EB949446CD5
:107C90000820A04700200090AD4801239A1EB64955
:107CA000446C0920A0473EBD1CB50121480601F0E7
:107CB000CAFC0121092001F0B9FC01214FF4EA10AE
:107CC00001F0CDFA4FF48070ADF8040003208DF878
:107CD000060048208DF8070001A99C4801F0F0F942
:107CE0004FF40070ADF8040018208DF8070001A9CA
:107CF000964801F0E5F901221221934802F00FFEA7
:107D000014208DF8000001208DF8010000208DF86E
:107D1000020001208DF80300684601F008F91520E3
:107D20008DF8000001208DF801008DF802008DF81B
:107D30000300684601F0FBF89049854801649049CA
:107D40004164904981641CBD00B585B004217E4822
:107D500002F04CFE20B104217B4802F0E0FE22E15B
:107D60000821794802F042FE20B10821764802F04D
:107D7000D6FE18E10221744802F038FE0028EED049
:107D80006A460021704802F0AFFC754A0198811ADA
:107D900090427CD006DC7C49401879D0B0F5807FD9
:107DA00077D106E07948081837D0B0F5284FF7D1D9
:107DB00053E09DF80E109DF80F0041EA0020C0101E
:107DC00073490968C8619DF80D0071490968086226
:107DD0006F480068006920F080006D4909680861FB
:107DE0006B480068006940F0400069490968086113
:107DF00067480068006920F020006549096808614B
:107E000063480068006940F0100061490968086132
:107E1000FEF792FE5F490860BFE09DF80D0000F09C
:107E20007F005B490968486259480068006920F48E
:107E3000007057490968086155480068006940F4B6
:107E40008070534909680861002051490968086732
:107E5000FEF772FE4F4908609FE09DF80C00C0F3EA
:107E600080004B490968C8629DF80C00C0F30110FE
:107E700047490968086346480068406920F4005093
:107E800043490968486142480068406902E01BE0D4
:107E900040E081E040F480503D49096848613C4839
:107EA0000068406920F40070394909684861384821
:107EB0000068406940F48070354909684861FEF700
:107EC0003BFE3449086068E09DF811209DF81210CF
:107ED00042EA0120C11700EB116109122C4A126815
:107EE00091622B480068006920F4007028490968F5
:107EF000086127480068006940F4807024490968D7
:107F000008610120224909680867FEF715FE21492A
:107F1000086042E09DF80C001D49096848631C4850
:107F20000068006920F008001949096808611848CC
:107F30000068006940F00400154909680861FEF70F
:107F4000FBFD1449086028E000640040000C01407B
:107F5000780000200004F00C00F1FE180099FF18D2
:107F6000EE6CFE0C0003F00C1703FF18173E1F1CED
:107F70001700FF1800F2FE18FF17FE18937700088D
:107F80006F7900081977000800FD0FF3EE7BFFF30F
:107F900074000020E801002000BF00BF02217748E4
:107FA00002F0BDFD00BF05B000BD00B585B02021C9
:107FB000724802F01BFD20B12021704802F0AFFD95
:107FC000CFE040216D4802F011FD20B140216B4807
:107FD00002F0A5FDC5E01021684802F007FD002869
:107FE000EED06A460121654802F07EFB644A0198A2
:107FF000811A904245D007DC624940187ED06FF468
:108000005A4140187BD160E0B1F5407F03D05E4813
:108010000818F7D11BE09DF80B0000F002005B4947
:108020000968886359480068406920F0080057498A
:108030000968486155480068406940F004005349A8
:1080400009684861FEF778FD5149086083E09DF8B2
:108050000D004E490968C8634C480068006920F467
:1080600000604A490968086148480068006940F4AE
:108070008060464909680861FEF75EFD4449086072
:1080800069E09DF80C0000024049096808643F4817
:108090000068006C9DF80B1008443C4909680864AE
:1080A0003A480068406920F0020038490968486190
:1080B00036480068406940F0010034490968486169
:1080C000FEF73AFD3249086045E09DF810000002D5
:1080D0002E49096848642D480068416C9DF80F00DE
:1080E00008442A490968486428480068006920F063
:1080F0000200264909680861244801E00CE029E0F3
:108100000068006940F00100204909680861FEF735
:1081100013FD1F4908601EE09DF80B109DF80C0030
:1081200041EA002019490968C867184800680069D1
:1081300020F4005015490968086114480068006976
:1081400040F48050114909680861FEF7F5FC1049B8
:10815000086000E000BF00BF1021084802F0DFFC0B
:1081600000BF05B000BD10B50121044802F03EFC7F
:1081700018B10121014802F0D2FC10BD006400409A
:108180001700FF1801E801E700C2DFFC74000020BF
:10819000E80100206A486B49086000F2FF1048605F
:1081A00008460068886008460068C86000200882A9
:1081B000704701466348008AB0F5007F01DB00206C
:1081C00070476048806801705E488068401C5D4A66
:1081D0009060104680685268904203D95948006800
:1081E000584A906072B658480088401C564A108021
:1081F0005448008A401C534A108253480088401E4D
:108200000004000C504A108000D162B60120D7E76C
:1082100070B504460D464DB103E014F8010BFFF7AD
:10822000C8FF2800A5F10105F7D10DE009E020788D
:108230000A2802D10D20FFF7BCFF14F8010BFFF74D
:10824000B8FF20780028F2D170BD10B5024600209A
:1082500009E000BF3D4B1B8813F0400FFAD0135CC0
:108260003A4CA380401C8842F3D300BF374B1B8895
:1082700013F0400FFAD010BD10B540F2255133482D
:1082800000F00CFE18B1314800F088FDC4B210BDFA
:108290002F490860704700B587B00121312001F0F7
:1082A000C5F90121080501F0CEF94FF48050ADF871
:1082B000180003208DF81A0018208DF81B0006A95D
:1082C000244800F0FDFE0420ADF8180048208DF889
:1082D0001B0006A9204800F0F3FE35208DF80400AD
:1082E00004208DF8050001208DF806008DF80700A8
:1082F00001A800F01CFE0020ADF80C00ADF80E0047
:10830000ADF81000ADF814000C20ADF8120002A971
:108310000E4800F046FC012240F225510B4800F0C7
:10832000D8FC0121094800F0C8FCFFF733FF0B49D6
:108330000B48C0F884100B49C0F8881007B000BD86
:108340000C2B0020F82A0020700000200050004074
:10835000EC01002000100140001401404B82000895
:1083600078000020918200082DE9F047BD480068A0
:10837000B0F88600A0F2DD794FEA990040F2B551DD
:10838000484309F0030140F26D1201FB0207B548B2
:10839000006890F88500A0F10108B8F10B0F00D833
:1083A00001E0BDE8F087AF490968B1F88600C11760
:1083B00000EB91718910B0EB810108D1002403E03A
:1083C000A948005D0744641C4445F9D307E0002434
:1083D00003E0A648005D0744641C4445F9D3A14866
:1083E000006890F883003844471EA14878439D49AF
:1083F000096891F88210C1EB4112C2EB012100EB38
:1084000001119848006890F88100C0EB001001EB62
:1084100080009449096891F88010451801F0F6FD34
:10842000064606F10A00854203D805F10A00B0426B
:1084300009D2012001F077FE01F024FE284601F068
:10844000EEFD01F01FFE00BFABE72DE9F04140F269
:10845000DD78002501F0DAFD06468548B6FBF0F42C
:10846000A01C0721B0FBF1F201FB12017D4800685E
:1084700080F8841040F2B550B4FBF0F100FB1147D6
:10848000B4FBF0F008EB800040F26D11B7FBF1F1A6
:10849000084481B273480068A0F88610B7F5896F68
:1084A0000BD3A7F2474403E06F48405D241A6D1CCC
:1084B0006D48405DA042F7D30EE040F26D10B7FB6F
:1084C000F0F100FB117403E06848405D241A6D1C54
:1084D0006648405DA042F7D3681CC1B2614800689D
:1084E00080F88510601CC1B25E48006880F8831077
:1084F0005F48B6FBF0F100FB11664FF46160B6FB1C
:10850000F0F0C1B25748006880F882104FF4616003
:10851000B6FBF0F100FB11603C21B0FBF1F0C1B201
:108520005048006880F881104FF46160B6FBF0F1AC
:1085300000FB11603C21B0FBF1F201FB1200494944
:10854000096881F88000BDE8F08110B500240121A0
:108550004FF0C05001F077F8012001F0E4FD01F088
:10856000D3FC012000F0D2FF05E0601C0446414925
:10857000884200D104E0412000F031FF0028F4D00F
:1085800000BF3C48844204DA4FF4807000F0D7FF0B
:108590000CE0012000F0D0FF00BF612000F01FFFC1
:1085A0000028FAD04FF4007000F0C9FF012000F05D
:1085B000CCFF01F06FFD01F065FD2E48844204DA26
:1085C00047F6FF7001F038FD03E049F63F4001F047
:1085D00033FD01F057FD0121084601F0F7FC01F0E1
:1085E00051FD10BD10B524480078401CC0B222498E
:1085F0000870642805D100200870FFF7B5FEFFF76A
:1086000024FF10BD10B5042001F0B3FCA0F590517B
:10861000343907D0FFF799FF41F23421042001F0EB
:108620009CFC1BE001214FF0C05001F00CF8012030
:1086300001F079FD412000F0D2FE28B9612000F060
:10864000CEFE08B9FFF781FF01F024FD01F01AFD0D
:108650000121084601F0BAFC01F014FDFFF7F5FE18
:1086600010BD000074000020FCBA0008F0BA000839
:108670008051010080841E00F00100209A489B492F
