:020000040800F2
:10000000802D0020B5100008BD100008BF100008AA
:10001000C1100008C3100008C5100008000000004F
:10002000000000000000000000000000C7100008F1
:10003000C910000800000000CB100008E508000807
:10004000CF100008CF100008CF100008CF10000814
:10005000CF100008CF100008CF100008CF10000804
:10006000CF100008CF100008CF100008CF100008F4
:10007000CF100008CF100008CF100008CF100008E4
:10008000CF100008CF100008CF100008CF100008D4
:10009000CF100008CF100008CF100008CF100008C4
:1000A000CF100008CF100008CF100008CF100008B4
:1000B000CF100008CF100008CF100008CF100008A4
:1000C000CF100008CF100008CF100008CF10000894
:1000D000CF100008710C0008CF100008CF100008E6
:1000E000CF100008CF100008CF100008CF10000874
:1000F000CF100008CF100008CF100008CF10000864
:10010000CF100008CF100008CF100008CF10000853
:10011000CF100008CF100008CF100008CF10000843
:10012000CF100008CF100008CF100008CF10000833
:10013000DFF80CD002F0ACF8004800470F070008C9
:10014000802D002080F30888704700007047FE482B
:10015000FE490860704710B501F021FC352001F020
:10016000B9FE10BD10B501F026FC10BD1CB5F8A1FC
:1001700003C9CDE90001F848062142696846904765
:100180001CBD30B587B0F5A003C8CDE90501F5A1C8
:1001900003C9CDE90301002001900290EE48F34A23
:1001A0006421C36B002098470546012D04D1F04817
:1001B0000068401CEE490860ED4800680B280BD130
:1001C0000020EB490860E448016C002088470220C9
:1001D000E849087007B030BDDF49C8698047044668
:1001E000062C2CD1DC480621426A01A89047062241
:1001F00001A905A802F03EF8C0B90020DC4908605A
:10020000D548016C0020884753208DF817005220F4
:100210008DF81800A8208DF81900CF4806214269F2
:1002200005A890470120D349087034E0CA48062148
:10023000426903A89047C849886980472BE0CE48A7
:100240000068A04204D0CC4804600020CB4908706C
:10025000C148CB4A4FF47A71C36B012098470546D9
:10026000012D18D1C5480078401CC44908700846C3
:10027000007802280FD1C048006860B10020BE4954
:100280000860BE490870B4480621426903A8904737
:10029000B1498869804700BF9CE72DE9F04F8FB0D6
:1002A0000027B8A103C9CDE90D01AEA103C9CDE96D
:1002B0000B01B6A103C9CDE90901B6A003C8CDE978
:1002C0000701B6A103C9CDE9050100200390049000
:1002D000B4A000680290002001909F49C86980473F
:1002E0000746A7F5006005387ED19B4840F605011A
:1002F000426AAD489047042202A9AB4801F0BAFF18
:1003000038B19548062142690BA890470FB0BDE867
:10031000F08F4FF0000A002504E0A348405D80EA1A
:100320000A0A6D1C40F604008542F6D39E4890F8F8
:100330000408504505D08848062142690BA890471B
:10034000E4E7DFF8648208F104089848008832285E
:100350000DDD8148062142690DA8904794489549D2
:10036000086000208349087090490880CEE7FFF7B5
:10037000F2FE9048006801F057FB044604E08D4807
:10038000006801F051FB0446042CF8D100252FE051
:10039000681C18F800004FEA002918F805004844C6
:1003A0001FFA80F90020019017E049468148006853
:1003B00001F03DFC044605E049467E48006801F036
:1003C00036FC0446042CF7D17A48D0F800B0BBF8CC
:1003D0000000484501D10120019001980028E4D097
:1003E00074480068801C00E012E072490860AD1C8F
:1003F000B5F5006FCCD3FFF7B5FE6C480088401C04
:100400006A49088054480621426907A8904799E044
:10041000062F6CD150485A4A6421C36B022098477A
:100420000646012E62D164480078401C624908707B
:1004300008460078022859D1002008704648016C0F
:100440000220884744480621426A03A890470622B2
:1004500009A903A801F00EFF002847D154485549C7
:100460000860FFF778FE554801F0DEFA044603E025
:10047000524801F0D9FA0446042CF9D14AF6AA21CF
:100480004E4801F0D4FB044605E04AF6AA214B4849
:1004900001F0CDFB0446042CF7D1444801884748BD
:1004A000801C01F0C4FB044606E040480188434834
:1004B000801C01F0BCFB0446042CF6D1404801F03E
:1004C000B3FA044603E03E4801F0AEFA0446042CB9
:1004D000F9D1FFF747FE20480621426905A8904759
:1004E000022024490870322000F05CF90EE73548FC
:1004F0000068B84204D033480760002032490870D1
:1005000015481F4A41F28831C36B032098470646BD
:10051000012E17D12C480078401C2B490870084642
:10052000007805280ED100200870204908800A486C
:10053000062142690BA890471D481E49086000200B
:100540000C490870002041E0240000202C0000200D
:10055000AA00035342B8000030000020AA00034361
:1005600050BA0000AA00035345BF00006D01000807
:100570000400002000000020080000200C000020E3
:100580004D010008AA0003534FB50000AA00034321
:1005900046AC0000AA00035352A80000AA0003536F
:1005A00046BC0000AA080244100900201C000020DC
:1005B0000030020818000020140000200048000845
:1005C00000F00308100000201500002062490870A8
:1005D00000BF9BE670B50446604E3078AA2803D170
:1005E00003205F49087070BD3078552810D15D49EF
:1005F00020680840B0F1005F06D172B665682068D7
:10060000FFF7A0FDA84707E0002055490870EAE77A
:10061000002053490870E6E700BFE4E72DE9F04702
:100620004E48801CB0F800804F4E00274AE000245E
:1006300005E030884D4921F81400B61C641CB4F55F
:10064000806FF6D3FFF787FD4948006801F0ECF9A9
:10065000054604E04648006801F0E6F90546042D29
:10066000F8D1002428E04FF000091CE03F4830F8A2
:1006700014103F48006801F0DAFA054607E03B48ED
:1006800030F814103A48006801F0D1FA0546042DFC
:10069000F5D1374800680088344931F81410884291
:1006A00001D14FF00109B9F1000FDFD030480068E7
:1006B000801C2F490860641CB4F5806FD3D3FFF70A
:1006C00051FD7F1C4745B2D3FFF745FD234801F09C
:1006D000ABF9054603E0214801F0A6F90546042DD3
:1006E000F9D145F255511D4801F0A1FA054605E042
:1006F00045F25551194801F09AFA0546042DF7D1F3
:10070000FFF730FD022016490870BDE8F0874FF072
:1007100000601849086062B6FFF719FD16490868BD
:10072000804718E00E48007830B1012807D0022831
:1007300008D003280DD109E0FFF723FD0AE0FFF7F9
:10074000ACFD07E00D48FFF745FF03E0FFF766FF4C
:1007500000E000BF00BFE5E71400002000480008EB
:10076000000000200000FE2F0030020810010020D1
:100770002000002008ED00E03000002000500008BC
:10078000704700BF0100A0F10100FBD1704700B528
:10079000034602E00820FFF7F4FF1800A3F101036D
:1007A000F8D100BD00B5034603E04FF4FA50FFF75F
:1007B000E8FF1800A3F10103F7D100BD10B504460E
:1007C000102C02DB0BA001F075FD102C02DA0E4894
:1007D000005D10BD3020FCE710B50C4800F07F40F4
:1007E0000B4908600B4800F07F400A49086000F0A0
:1007F00023F810BD0A4153534552543A2068657896
:10080000203C2031360A000004230008D9070008E4
:10081000940000209800002010B5002807DA0A078D
:10082000140E104A00F00F031B1FD45403E00A07F4
:10083000130E0D4A135410BD10B500F063FA00F00A
:100840003AFB00F09DF84FF4A06000F049FE0E2145
:100850004FF0FF30FFF7E0FF0F216FF00100FFF7CF
:10086000DBFF10BD18ED00E000E400E010B502462B
:100870002AB3012A12D0022A32D1574800780A2816
:1008800001D1002010BD544803780078401C524C20
:100890002070524840F823100120F3E750480078B8
:1008A000042801D10020EDE74D4803780078401C72
:1008B0004B4C20704B4840F823100120E2E74A4897
:1008C0000078022801D10020DCE74748037800784F
:1008D000401C454C2070454840F823100120D1E7CA
:1008E0000020CFE710B542480078401CC0B2404914
:1008F0000870642801D1002008703C4908688047CE
:100900003A49486880473A4800780A2190FBF1F05C
:10091000C4B23748007890FBF1F201FB12000A28BC
:100920002CD2DFE800F005090D11151A1D20212237
:100930002C490868804721E02A49486880471DE023
:1009400028498868804719E02649C868804715E02B
:10095000224951F82400804710E000F05BFA0DE0D6
:1009600000F0C9F80AE009E008E014B1012C02D156
:1009700000E001E000E000BF00BF00BF00BF10BD0D
:1009800030B51C48006842F21072B0FBF2F1B1F1D0
:10099000807F00D31BE021F07F40401E4FF0E0221B
:1009A000506150170F22002806DA1301124C00F094
:1009B0000F052D1F635502E01301104C235400BF97
:1009C00000204FF0E02290610720106100BF0C4929
:1009D0000C48416430BD0000DC000020B400002061
:1009E000DD000020A4000020DE0000209C0000208C
:1009F000DF000020E400002018ED00E000E400E04B
:100A00006D08000830000020F148F249086000F24B
:100A1000FF70486008460068886008460068C86043
:100A2000002008827047EC48EC49086000F6FF702F
:100A3000486008460068886008460068C860002072
:100A4000088270470146E348008AB0F5006F01DB79
:100A500000207047DF4880680170DE488068401CD5
:100A6000DC4A9060104680685268904203D9D948A9
:100A70000068D84A906072B6D9480088401CD84AAD
:100A80001080D448008A401CD24A1082D448008882
:100A9000401E0004000CD24A108000D162B6012032
:100AA000D7E770B504460D464DB103E014F8010BCD
:100AB000FFF7C8FF2800A5F10105F7D10DE009E017
:100AC00020780A2802D10D20FFF7BCFF14F8010B93
:100AD000FFF7B8FF20780028F2D170BD70B504464A
:100AE0000D460A2C02D10D20FFF7ACFFE0B2FFF754
:100AF000A9FF204670BDB748008A00B97047B948C1
:100B0000008810F0400F00D1F8E7B248C0680078C4
:100B1000B449091D0880AF48C068401CAD49C86091
:100B20000846C0684968884203D9AA480068A949AC
:100B3000C86072B6AA480088401CA9490880A54828
:100B4000008A401EA3490882A5480088401E000470
:100B5000000CA349088000D162B600BFCEE710B5F3
:100B6000024672B69E4B1B885B1C9D4C2380002066
:100B70000AE000BF9B4B1B8813F0400FFAD0135CB8
:100B8000984C241D2380401C8842F2D3944B1B8830
:100B90005B1E1B041B0C924C238000D162B610BD5F
:100BA0008E48008A704701468C48008A08B90020A8
:100BB00070478A48C068007808708848C068401C40
:100BC000864AD0601046C0685268904203D9834874
:100BD0000068824AD06072B681480088401C804A12
:100BE00010807E48008A401E7C4A10827C48008823
:100BF000401E0004000C7A4A108000D162B6012029
:100C0000D6E710B503460A467448008A90422BD3B3
:100C1000002126E07148C068007858546F48C068C9
:100C2000401C6E4CE0602046C0686468A04203D956
:100C30006A480068694CE06072B669480088401CE8
:100C4000674C20806548008A401E644C20826448BE
:100C50000088401E0004000C614C208000D162B668
:100C6000491C9142D6D301E0002010BD0120FCE7D1
:100C700010B540F225515B4800F0EEFBF8B1594841
:100C800000F06AFBC4B25548008AB0F5805F00DB13
:100C900010BD52488068047050488068401C4F491D
:100CA0008860084680684968884203D94B480068D4
:100CB0004A4988604948008A401C484908820821FE
:100CC000484800F0B3FB012802D1464800F044FB3D
:100CD00000BFDDE710B5012240F22551414800F088
:100CE000D6FA01213F4800F0C6FA10BD10B5002227
:100CF00040F225513B4800F0CAFA0021394800F083
:100D0000BAFA10BD00B587B0012144F2050000F029
:100D1000BFFD4FF40070ADF8180003208DF81A00E5
:100D200018208DF81B0006A92F4801F057F94FF441
:100D30008060ADF8180048208DF81B0006A92A48ED
:100D400001F04CF925208DF8040003208DF80500F2
:100D500002208DF8060001208DF8070001A800F0A0
:100D6000C4FB4FF4E13002900020ADF80C00ADF868
:100D70000E00ADF81000ADF814000C20ADF8120014
:100D800002A9184800F0EBF9012240F2255115485C
:100D900000F07DFA0121134800F06DFAFFF734FEF0
:100DA000FFF741FE1148124948601249104881601E
:100DB0001149C16011490161114941611149016243
:100DC000114941621149C1611149816107B000BDFA
:100DD0002C11002018110020401900202C1900208F
:100DE000280000200038014000080140D50C000810
:100DF00030000020ED0C0008450A00085F0B0008D9
:100E0000A30A0008A70B0008030C0008A10B0008A8
:100E1000270A000870B500242A48006800B970BD90
:100E20002848056818E015F0010F13D0264850F83F
:100E30003400401E244941F834000BD10120A04069
:100E40002049096881431F4801601F4901EBC40123
:100E5000486880476D08641C002DE4D100BFDEE7C0
:100E600010B5034617480068D84010F0010F01D0B4
:100E7000002010BD144840F8331000EBC30042605E
:100E8000012098400F4C246820430E4C2060012024
:100E9000EFE701460B480068C84010F0010F01D190
:100EA0000020704701208840064A126882430548A6
:100EB00002600120F5E705490548C1630549016461
:100EC00070470000E000002040290020610E00086B
:100ED00030000020930E00080CB500200190009017
:100EE0006B48006840F480306949086000BF68487A
:100EF000006800F4003000900198401C01900098B8
:100F000018B90198B0F5A06FF1D16148006810F4EC
:100F1000003F02D00120009001E0002000900098E6
:100F2000012842D15B48006840F010005949086030
:100F30000846006820F0030008600846006840F09A
:100F400002000860524840685149486008464068BD
:100F500048600846406840F4806048600846406841
:100F600020F47C1048600846406840F4E81048606F
:100F70000846006840F08070086000BF4448006880
:100F800010F0007FFAD04248406820F0030040494A
:100F900048600846406840F00200486000BF3C4896
:100FA000406800F00C000828F9D10CBD10B5FFF71F
:100FB00093FF10BD10B53648006840F00100344979
:100FC000086008464068344908403149486008468E
:100FD0000068324908402E4908600846006820F43D
:100FE000802008600846406820F4FE0048604FF406
:100FF0001F008860FFF7DAFF4FF0006028490860A3
:1010000010BD10B5002100200022214B5B6803F0C9
:101010000C0121B1042906D0082928D107E0214B71
:10102000214C236027E01F4B1F4C236023E0184B0B
:101030005B6803F47010164B5B6803F48032022384
:1010400003EB904022B9194B4343174C23600DE04A
:101050000F4B5B6813F4003F04D0144B4343124C16
:10106000236003E00F4B43430F4C236003E00D4B21
:101070000D4C236000BF00BF054B5B68C3F3031337
:101080000B4CE15C084B1B68CB40074C236010BD48
:1010900000100240002002400000FFF8FFFFF6FEB3
:1010A00008ED00E000127A00E400002000093D0095
:1010B000E80000200648804706480047FEE7FEE7B4
:1010C000FEE7FEE7FEE7FEE7FEE7FEE7FEE7FEE7F8
:1010D000B50F00083101000810B50446FB488442F2
:1010E00009D10121880300F0EDFB00214FF480407D
:1010F00000F0E8FB32E0F648844209D101214804BF
:1011000000F0EDFB00214FF4003000F0E8FB25E09B
:10111000F048844209D10121880400F0E0FB00215D
:101120004FF4802000F0DBFB18E0EB48844209D14B
:101130000121C80400F0D3FB00214FF4002000F08F
:10114000CEFB0BE0E548844208D10121080500F000
:10115000C6FB00214FF4801000F0C1FB10BD2DE94B
:10116000F04786B005460E460024A24600BFA146C1
:101170000027B08900B100BF2F462C8A4CF6FF70C3
:101180000440F08804432C82AC894EF6F3100440EE
:10119000B08831890843718908430443AC81AC8A23
:1011A0004FF6FF400440B0890443AC8201A800F030
:1011B00002FBC648874202D1DDF810A001E0DDF84D
:1011C0000CA0A88910F4004F08D00AEBCA0000EB6D
:1011D0000A1031684900B0FBF1F807E00AEBCA00D9
:1011E00000EB0A1031688900B0FBF1F86420B8FB0D
:1011F000F0F004012009642101FB1089A88910F492
:10120000004F08D0322000EBC900B0FBF1F000F035
:101210000700044308E0322000EB09106421B0FB12
:10122000F1F000F00F0004432C8106B0BDE8F08718
:101230004FF41651016000218180C18001810C2191
:10124000418100218181704710B502460020108A3B
:101250004FF2FF0318400B884C8823438C882343AC
:10126000CC8823431843108210BD002101804180A7
:101270008180C180704721B1828942F4005282810D
:1012800004E082894DF6FF731A4082817047F0B501
:1012900003460024002600250020A1F510676A3FC0
:1012A00000D100BF1846C1F3421401F01F06012708
:1012B00007FA06F5012C01D10C3004E0022C01D113
:1012C000103000E014301AB107682F43076002E0C5
:1012D0000768AF430760F0BD1AB1838A0B4383826E
:1012E00002E0838A8B4383827047028A4FF6F07351
:1012F0001A400282028A0A430282704782894FF2B0
:10130000FF731A40828182890A438281704721B12A
:10131000828942F00202828104E082894FF6FD73E5
:101320001A4082817047028A4FF6DF731A400282A8
:10133000028A0A430282704721B1028A42F4804243
:10134000028204E0028A4BF6FF731A400282704761
:10135000C1F308028280704701468888C0F3080004
:101360007047818941F0010181817047028BD2B2BF
:101370000283028B42EA012202837047028B02F44D
:101380007F420283028B0A430283704721B1828A23
:1013900042F02002828204E0828A4FF6DF731A4014
:1013A0008282704721B1828A42F01002828204E078
:1013B000828A4FF6EF731A408282704721B1828A87
:1013C00042F00802828204E0828A4FF6F7731A40E4
:1013D0008282704721B1828942F40042828103E017
:1013E0008289C2F30E028281704721B1828A42F45F
:1013F0000062828204E0828A4FF2FF731A40828286
:101400007047828A4FF6FB731A408282828A0A43AF
:101410008282704721B1828A42F00202828204E015
:10142000828A4FF6FD731A4082827047024600207E
:10143000B1F5007F00D100BF13880B4201D001201D
:1014400000E00020704701F40072B2F5007F00D187
:1014500000BFCA430280704770B5024600240023D3
:1014600000250020A1F510666A3E00D100BFC1F33F
:10147000421501F01F03012606FA03F3012D02D1E4
:101480009689334006E0022D02D1168A334001E0EE
:10149000968A33400C12012606FA04F4168834406A
:1014A00013B10CB1012000E0002070BD10B5002286
:1014B0000023A1F510646A3C00D100BF0A12012488
:1014C0009440A3B2DC43048010BD0000003801400A
:1014D0000044004000480040004C004000500040E4
:1014E00031490143314A1160704770B50021002332
:1014F0000F22C4780CB32D4C246804F4E064C4F5C6
:10150000E064210AC1F10403CA40447804FA03F1FB
:101510008478144021430901254C0678A1550478AC
:1015200004F01F050124AC4005786D114FF0E02652
:1015300006EB8505C5F8004109E0047804F01F05B5
:101540000124AC401B4D0678761145F8264070BD4D
:10155000194A0A400243154B1B1F1A60704739B1E4
:10156000124A121D12680243104B1B1D1A6006E03E
:101570000E4A121D126882430C4B1B1D1A607047E5
:10158000042808D14FF0E021096941F004014FF02F
:10159000E022116107E04FF0E021096921F0040128
:1015A0004FF0E022116170470000FA050CED00E0F9
:1015B00000E400E080E100E080FFFF1FDD480068FC
:1015C00040F00100DB49086008464068DA490840FD
:1015D000D849486008460068D8490840D54908609D
:1015E0000846006820F4802008600846406820F41F
:1015F000FE0048604FF41F0088607047CD490968BD
:1016000021F48031CB4A11601146096821F4802110
:101610001160B0F5803F03D0B0F5802F0ED106E009
:10162000C449096841F48031C24A116007E0C149E8
:10163000096841F4A021BF4A116000E000BF00BF6B
:10164000704710B501460022002300204A11012AEC
:1016500002D1B84C236806E0022A02D1B54C236AB5
:1016600001E0B44C636A01F01F02012494401C4263
:1016700001D0012000E0002010BD38B5002000900E
:101680000024002500BF3120FFF7DBFF054600984E
:10169000401C00900098B0F5A06F01D0002DF2D052
:1016A0003120FFF7CEFF08B1012400E000242046DE
:1016B00038BD014600209F4A106820F0F80040EA3B
:1016C000C100106070479E490860704702460020C4
:1016D000984B586820F47C1042EA01031843954B5C
:1016E0005860704796490866704701460020914A45
:1016F000506820F003000843506070478D484068F0
:1017000000F00C007047014600208A4A506820F023
:10171000F00008435060704701460020854A506839
:1017200020F4E06008435060704701460020814A81
:10173000506820F4605040EAC1005060704729B101
:101740007C4A527A02437B4B5A7204E0794A527ABD
:101750008243784B5A7270477A4908607047014655
:101760000020744A506820F440400843506070479D
:101770000021754A11706F4A82F82010012802D0AA
:10178000042808D103E001216F4A117004E005210B
:101790006D4A117000E000BF00BF70476B490860E0
:1017A00070476449096A0143624A11627047674998
:1017B00044390860704730B500210022002400231E
:1017C0005C4D6D6805F00C0121B1042905D0082994
:1017D00023D105E05E4D056022E05D4D05601FE010
:1017E000544D6D6805F47012524D6D6805F48034E7
:1017F000022505EB92421CB9564D554305600BE09E
:101800004C4D6D6815F4003F03D0524D55430560B3
:1018100002E04F4D5543056002E04D4D056000BFAD
:1018200000BF444D6D6805F0F00109094A4D6B5C3D
:101830000568DD4045603F4D6D6805F4E061090ACB
:10184000454D6B5C4568DD4085603A4D6D6805F43B
:101850006051C90A404D6B5C4568DD40C560354D3F
:101860006D6805F44041890B3C4D6B5CC568B5FB68
:10187000F3F5056130BD29B12E4A526902432D4B63
:101880005A6104E02B4A526982432A4B5A617047DD
:1018900029B1284A92690243264B9A6104E0254AFD
:1018A00092698243234B9A61704729B1214AD269D8
:1018B0000243204BDA6104E01E4AD26982431D4B89
:1018C000DA61704729B11B4AD2680243194BDA60CA
:1018D00004E0184AD2688243164BDA60704729B197
:1018E000144A12690243134B1A6104E0114A126947
:1018F0008243104B1A6170471449403908607047A1
:101900000F49C86470470B49C87170470948406A5D
:1019100040F0807007494862704701460020054A40
:1019200092680A4201D0012000E00020704701497E
:1019300088727047001002400000FFF8FFFFF6FEBB
:1019400000004242D800424220100240800442423D
:1019500000127A0000093D00F80000200801002074
:1019600001460020FE4A106800F03800084310606D
:101970007047FB49096821F00801F94A11601146D6
:101980000968014311607047F549096821F01001A9
:10199000F34A116011460968014311607047F1482C
:1019A000EF494860F04848607047EE48EC494860AD
:1019B000ED4848607047EA48006940F08000E84917
:1019C00008617047E648006940F08000E44908611A
:1019D00070470420E249C96811F0010F01D00120CD
:1019E0000EE0DF49C96811F0040F01D0022007E0C2
:1019F000DB49C96811F0100F01D0032000E004207A
:101A0000704700B502460423FFF7E3FF034603E0F7
:101A1000FFF7DFFF0346521E012B01D1002AF7D149
:101A200002B90523184600BD30B5044604254FF41D
:101A30003020FFF7E6FF0546042D17D1C84800699E
:101A400040F00200C649086108464461006940F060
:101A5000400008614FF43020FFF7D3FF0546C0482F
:101A6000006941F6FD710840BD490861284630BD56
:101A700010B504244FF43020FFF7C3FF0446042CB4
:101A800016D1B748006940F00400B549086108461E
:101A9000006940F0400008614FF43020FFF7B1FFCB
:101AA0000446AF48006941F6FB710840AC49086143
:101AB000204610BD00B502460423FFF78AFF034607
:101AC00003E0FFF786FF0346521E012B01D1002AD7
:101AD000F7D102B90523184600BD10B504244FF410
:101AE0003020FFF7E7FF0446042C16D19C4800691C
:101AF00040F004009A4908610846006940F040003F
:101B000008614FF43020FFF7D5FF04469448006980
:101B100041F6FB71084092490861204610BD002043
:101B20008F49C96911F0020F01D0012000E00020A7
:101B3000704730B5A5250424FFF7F1FF00B100255B
:101B40004FF43020FFF75DFF0446042C3AD185485E
:101B500083498860844888600846006940F0200016
:101B600008610846006940F0400008614FF43020E9
:101B7000FFF747FF0446042C1BD17948006941F662
:101B8000DF710840764908610846006940F010009E
:101B9000086176480580E002FFF733FF0446052C14
:101BA00010D06F48006941F6EF7108406C49086138
:101BB00008E0052C06D06A48006941F6EF7108403C
:101BC00067490861204630BD78B506460C460425B5
:101BD00000200090E802FFF714FF0546042D24D1F1
:101BE0005F48006940F001005D4908613480E80207
:101BF000FFF707FF0546042D10D1B01C0090200C04
:101C000000990880E802FFF7FCFE05465448006989
:101C100041F6FE7108405249086106E050480069EB
:101C200041F6FE7108404E490861284678BD70B5FE
:101C300004460D460426F002FFF7E3FE0646042E96
:101C400011D14748006940F00100454908612580ED
:101C5000F002FFF7D6FE06464148006941F6FE71E4
:101C600008403F490861304670BD70B505460E46D4
:101C70000424E002FFF7C5FE0446042C17D13948BE
:101C800037498860384888600846006940F010008D
:101C900008612E80E002FFF7B4FE0446052C06D052
:101CA0002F48006941F6EF7108402D490861204630
:101CB00070BD2DE9F04304464FF6FF763746B04637
:101CC000B1460425E443E6B2C4F30727C4F307484A
:101CD0004FEA1469E802FFF794FE0546042D49D146
:101CE00020481F498860204888600846006940F005
:101CF00010000861FF2E06D01C4808300680E8025C
:101D0000FFF77FFE0546042D08D1FF2F06D01748A8
:101D10000A300780E802FFF774FE0546042D0AD159
:101D2000B8F1FF0F07D011480C30A0F80080E8028E
:101D3000FFF767FE0546042D0AD1B9F1FF0F07D062
:101D40000A480E30A0F80090E802FFF75AFE054658
:101D5000052D0FD00248006941F6EF71084007E0F9
:101D60000020024023016745AB89EFCD00F8FF1F3B
:101D7000664908612846BDE8F08330B5054604246D
:101D80004FF43020FFF73DFE0446042C41D160485B
:101D90005E4988605F4888600846006940F020001E
:101DA00008610846006940F0400008614FF43020A7
:101DB000FFF727FE0446042C22D15448006941F65F
:101DC000DF710840514908610846006940F0100081
:101DD00008611DB100205049088002E0A5204E494D
:101DE00008804FF43020FFF70CFE0446052C10D07D
:101DF0004648006941F6EF7108404449086108E02F
:101E0000052C06D04148006941F6DF7108403F4982
:101E10000861204630BDF0B505460E46174604243D
:101E20003B483A4988603B488860E002FFF7E9FD9B
:101E30000446042C19D13548006940F0100033499C
:101E4000086147F0F800304328433349891C088073
:101E5000E002FFF7D6FD0446052C06D02B480069AA
:101E600041F6EF710840294908612046F0BD274836
:101E7000C069800870472548006A704700202349E0
:101E8000096811F0200F01D0012000E00020704708
:101E900029B11E4A126902431C4B1A6104E01B4A15
:101EA00012698243194B1A617047014600200129CB
:101EB00008D1164AD26912F0010F01D0012008E0C2
:101EC000002006E0114AD2680A4201D0012000E059
:101ED000002070470D49C860704704200B49C9684D
:101EE00011F0010F01D001200EE00849C96811F07E
:101EF000040F01D0022007E00449C96811F0100F57
:101F000001D0032000E004207047000000200240C0
:101F100023016745AB89EFCD00F8FF1F10B50446DC
:101F2000CA48844208D101210420FFF7CBFC0021DC
:101F30000420FFF7C7FC46E0C548844208D10121D0
:101F40000820FFF7BFFC00210820FFF7BBFC3AE0A8
:101F5000C048844208D101211020FFF7B3FC0021C2
:101F60001020FFF7AFFC2EE0BB48844208D10121CE
:101F70002020FFF7A7FC00212020FFF7A3FC22E090
:101F8000B648844208D101214020FFF79BFC002184
:101F90004020FFF797FC16E0B148844208D10121A8
:101FA0008020FFF78FFC00218020FFF78BFC0AE0E8
:101FB000AC48844207D101218015FFF783FC002142
:101FC000A015FFF77FFC10BD10B501210846FFF7F3
:101FD00079FC00210120FFF775FC10BD2DE9F041CF
:101FE000024600250026002000230024002791F847
:101FF00003C00CF00F0591F803C01CF0100F03D0C4
:1020000091F802C04CEA050591F800C0BCF1000F40
:1020100031D0146800202BE04FF0010C0CFA00F3D3
:10202000B1F800C00CEA03069E4220D183004FF0B5
:102030000F0C0CFA03F7BC4305FA03FC4CEA04044A
:1020400091F803C0BCF1280F06D14FF0010C0CFA37
:1020500000FCC2F814C00AE091F803C0BCF1480FBC
:1020600005D14FF0010C0CFA00FCC2F810C0401C66
:102070000828D1D31460B1F800C0BCF1FF0F34DDE3
:10208000546800202EE000F1080C4FF0010808FA17
:102090000CF3B1F800C00CEA03069E4221D1830084
:1020A0004FF00F0C0CFA03F7BC4305FA03FC4CEAA3
:1020B000040491F803C0BCF1280F05D100F1080C0D
:1020C00008FA0CF8C2F8148091F803C0BCF1480F6C
:1020D00007D100F1080C4FF0010808FA0CF8C2F81B
:1020E0001080401C0828CED35460BDE8F0814FF624
:1020F000FF710180022181700421C1707047024686
:10210000002093680B4201D0012000E000207047BE
:102110000146886880B2704702460020D3680B42AF
:1021200001D0012000E0002070470146C86880B25D
:10213000704701617047416170470AB1016100E079
:1021400041617047C16070474FF480320A43826139
:102150008161826182698269704702460020424B38
:1021600018684FF68073184040EA021008433E4B4F
:10217000186070473D49C8617047F0B50A460023B2
:1021800000240021002500F00046B6F1004F02D1E6
:10219000354EF16901E0344E7168C0F3034583B2F6
:1021A00000F44016B6F5401F08D121F070612E4EA4
:1021B000766826F070662C4F7E6012E000F4801680
:1021C000B6F5801F06D1032606FA05F4A14341F0B7
:1021D000706106E0460D360103FA06F6B14341F0A0
:1021E000706122B1460D360103FA06F6314300F064
:1021F0000046B6F1004F02D11B4EF16101E01A4ECC
:102200007160F0BD30B500228B071C0F0F2303FA5D
:1022100004F2154B08338C1053F824309343124CBE
:1022200008348D1044F8253023468C1053F82430A0
:102230008C07240F00FA04F423430B4C08348D1050
:1022400044F8253030BD0A49086070470008014055
:10225000000C014000100140001401400018014032
:10226000001C01400020014000000140000020420D
:10227000DC00204230B504460020034600E05B1C31
:10228000934203D2E05CCD5C401BF8D030BD00002F
:10229000064C074D06E0E06840F0010394E80700B3
:1022A00098471034AC42F6D3FDF746FF14230008DC
:1022B00034230008014A024900F013B8DD0A00087F
:1022C0000C01002002E008C8121F08C1002AFAD140
:1022D00070477047002001E001C1121F002AFBD1A6
:1022E00070472DE9F04116460F460446002503E0ED
:1022F0003946B0476D1C641C20780028F8D1284668
:10230000BDE8F08130313233343536373839414227
:10231000434445463423000800000020100100001B
:10232000C42200084424000810010020702C000082
:10233000D42200080000000000000000000000009F
:102340000000000000000000000000000030020853
:102350000000000000500008000000000000000025
:1023600000000000D9070008000000000000000085
:10237000000000000000000000000000000000005D
:10238000000000000000000000000000000000004D
:10239000000000000000000000000000000000003D
:1023A000000000000000000000000000000000002D
:1023B000000000000000000000000000000000001D
:1023C000000000000000000000000000000000000D
:1023D00081070008810700088107000881070008BD
:1023E00081070008810700088107000881070008AD
:1023F000810700088107000881070008810700089D
:10240000810700088107000881070008810700088C
:10241000000000000000000000A24A0400000000CC
:102420000000000001020304060708090000000084
:102430000102030401020304060708090204060856
:042440000000000098
:044800005555555560
:0400000508000131BD
:00000001FF
:020000040800F2
:10500000505E0020959200089D9200089F92000833
:10501000A1920008A3920008A592000800000000D9
:10502000000000000000000000000000A79200083F
:10503000A9920008000000004D510008FD70000812
:10504000AF920008AF920008AF920008AF9200083C
:10505000AF920008AF920008AF920008AF9200082C
:10506000AF920008AF920008AF920008AF9200081C
:1050700097780008AF920008AF920008AF9200083E
:10508000AF920008AF920008AF920008AF920008FC
:10509000198300087B850008AF920008AF920008D2
:1050A000AF920008AF920008AF920008AF920008DC
:1050B000AF920008AF920008AF920008AF920008CC
:1050C000AF920008AF920008AF920008AF920008BC
:1050D000AF920008A9730008A376000821780008A1
:1050E000AF920008AF920008AF920008AF9200089C
:1050F000AF920008AF920008AF920008AF9200088C
:10510000AF920008AF920008AF920008AF9200087B
:105110009D8F0008FD880008AF920008AF9200083C
:10512000AF920008AF920008AF920008AF9200085B
:10513000DFF80CD006F070FD00480047BD510008B4
:10514000505E002080F308887047000072B6EFF3CD
:1051500009800A4A0A4B20B1203880E8F00F116814
:10516000086018681060006890E8F00F203080F345
:1051700009884EF0040E62B6704700BF340200206A
:105180003802002080F30988704700001248134954
:10519000086040F6AA201049086146F26A6048613A
:1051A0000F488861002008668867C86108654865FF
:1051B0004FF4B460886611204867704710B50948FD
:1051C0000949086062B6FFF7E1FF084908688047AF
:1051D00000F008FE002010BD180300206001002030
:1051E000555501000050000808ED00E06401002062
:1051F00010B572B64FF00060446801460868FFF7CA
:10520000A1FFA04710BDF8B505460E46002400BF1B
:1052100025E0285D7E280BD17D208DF8000002203E
:105220008DF80100FE480221826D6846904715E026
:10523000285D7D280AD18DF8000001208DF801003D
:10524000F7480221826D6846904707E0285D8DF897
:105250000000F3480121826D68469047641CB44207
:10526000D7D3F8BD2DE9F04780460D4617464FF4D9
:105270001671EC4806F0B5FA7E20EA49087038123B
:1052800048708F70280AC8700D7101204871E64877
:105290000078E649097840EA4100E2498871E4482B
:1052A0000068000EC871E2480068000C0872E0480F
:1052B0000088000A4872DE4800788872DD4800885D
:1052C0000012C872DB48007808732A464146D54868
:1052D0000D3006F06DFA01244FF0000904E0D148CA
:1052E000005D80EA0909641C05F10D00A042F6D8B2
:1052F000CC4901F800907E21401CCA4A1154002478
:10530000002628E01CB105F10E00A04204D1C548DA
:10531000005DC94988551CE0C248005D7E2807D160
:105320007D223046761CC4490A54022088550FE07D
:10533000BC48005D7D2807D17D223046761CBE49E1
:105340000A540120885503E0B648005DBA498855E3
:1053500000BF641C761C05F10E00A042D2D2B048FA
:105360003146826DB4489047B2480088401CB1492C
:105370000880BDE8F08770B504460D4601F0C4FE14
:10538000001BA84201D3012070BD0020FCE710B52E
:105390006421AA480068FFF7EEFF28B101F0ACF9DC
:1053A00001F0B2FEA549086010BD38B59C48016CFB
:1053B0000A20884700200090994800235A1EA049DF
:1053C000446C1846A04700200090954800235A1EC0
:1053D0009C49446C0120A047002000909048002385
:1053E0005A1E9949446C0220A047002000908C4826
:1053F00000235A1E9549446C0320A04700200090CA
:10540000874800235A1E9249446C0420A04700207C
:105410000090834801239A1E8E49446C0520A047C2
:10542000002000907E4801239A1E8B49446C062080
:10543000A047002000907A4801239A1E8749446CB7
:105440000720A04700200090754801239A1E844938
:10545000446C0820A04700200090714801239A1E48
:105460008049446C0920A04738BD7F48806830B926
:105470007E480068012800D170470020FCE77A4888
:10548000C068012801D10020F6E779480078C928D2
:1054900004D07548406E08B10020EDE773480068FD
:1054A000012800D1E8E70020E6E71CB571A103C997
:1054B000CDE900015A4808226946836C6448FD38EA
:1054C00098471CBD10B504466C48007820B11CB943
:1054D0006B480068C06908B968480470674800787C
:1054E00000B910BD142167480068FFF744FF28B1D8
:1054F000FFF7DBFF01F008FE6249086000BFF0E73C
:1055000010B5FFF7B2FF0446FFF7DCFF10BD3EB554
:105510000446012C14D15C480068002834D15B4853
:105520000068002830D10120574908603C48C16A12
:105530000020884701F0E8FD5549086000203EBD85
:10554000022C21D151480068F0B94F480068032867
:1055500019D150A207CA8DE8070049F604720A2142
:105560006846FFF77FFE2E48816B012088472C4953
:10557000486D804701204549086001F0C5FD484954
:1055800008600020DBE700BF40480068012813D115
:1055900042F2107142480068FFF7EDFE60B120480A
:1055A000C16A0020884700203749086037490860F1
:1055B00001F0AAFD3A49086033480068012816D175
:1055C0004FF4FA6132480068FFF7D5FE30B3144853
:1055D000C16A012088471248416B01208847022098
:1055E0002949086001F090FD2949086064E02648D7
:1055F0000068022860D14FF4FA6125480068FFF77F
:10560000BAFE58B10648416B002088470448816BB8
:10561000002088470249086D804743E04CE00000C5
:1056200064010020A00300201E0000201F000020B5
:10563000D40200202A000020F80500202C000020C1
:105640000004F00C00F1FE180099FF18EE6CFE0C3F
:105650000003F00C1703FF18173E1F1C1700FF185C
:1056600000F2FE18FF17FE181803002000000020AB
:105670000F000020FFFFFFFFFFFFFFFF34000020AF
:1056800060010020380000205C0000206000002045
:1056900054000020AA010001FFFFFFEE06BD00003C
:1056A00058000020012000F009F80320FB490860A1
:1056B00001F02AFDFA490860002040E710B50446D1
:1056C00024B101F021FDF749086010BDF649F54805
:1056D0000068FFF750FE30B10220FFF718FF01F01D
:1056E00013FDF049086000BFEFE72DE9F04786B0F1
:1056F000EE4C4FF0000AEE480668092E02D806B0BC
:10570000BDE8F0870322EB49204606F07CF840B163
:105710000020E74908604FF48061E44806F061F832
:10572000EDE70422E349091D201D06F06CF840B1A5
:105730000020DF4908604FF48061DC4806F051F832
:10574000DDE794F80390257AF02D03D0F12D01D0F8
:10575000F22D0CD10B2E00D2D1E7617AA27A41EA68
:10576000022000F10C018E4200D2C8E718E00B2D98
:1057700004D140F21E20864212D2C0E709F109008E
:10578000864200D2BBE709F10900864208D000201A
:10579000C74908604FF48061C44806F022F8AEE7BC
:1057A0000120FFF78BFF0120C3490870082D02D1AB
:1057B000FFF71EFDDCE1F22D0DD1607AA17A40EAFF
:1057C0000128BE484146D0F8842004F10B009047E0
:1057D0004FF0010ACCE1F12D20D1E07AB0B1207B6D
:1057E000B7494866B548D0F89810B548643088473E
:1057F00060B9B249D1F894008047207BB04948662F
:10580000AE48D0F89810AE4864308847607B10B13D
:10581000A07BAC4908704FF0010AA9E1F02D0CD132
:10582000607AA17A40EA0128A4484146C26F04F197
:105830000B0090474FF0010A9AE1012D41D1607AA7
:10584000012819D100209E49C8609C48D0F89810C2
:105850009B480C30884760B99849D1F8940080473C
:1058600000209749C8609548D0F8981094480C30AB
:105870008847FFF745FE21E0607AC8B901209049CA
:10588000C8608E48D0F898108D480C30884760B9B1
:105890008A49D1F89400804701208949C860874827
:1058A000D0F8981086480C308847FFF729FE05E0AD
:1058B00049F61F720B218448FFF7D4FC4FF0010A10
:1058C00056E1022D0BD1A07A000280490880607A4F
:1058D000098808447D4908804FF0010A48E1032DFA
:1058E00039D194F80980B8F1030F31DA744880682F
:1058F00040452DD07248C0F808807048D0F8981004
:105900006F480830884760B96C49D1F894008047E7
:105910006B48C0F808806948D0F89810684808308B
:1059200088470020664908606448D0F898106448A9
:10593000884758B96149D1F89400804700206049F0
:1059400008605E48D0F898105D488847FFF7D8FD9A
:105950004FF0010A0CE1042D08D149F61F720B210A
:105960005948FFF77FFC4FF0010A01E1052D1DD1D9
:10597000607A012807D15148016B01208847012036
:105980004F4908660FE0607A38B94C48016B002037
:10599000884700204A49086605E049F61F720B2136
:1059A0004948FFF75FFC4FF0010AE1E0062D02D104
:1059B0004FF0010ADCE0072D40D14FF0000814221F
:1059C00043A101A805F0F4FE03F0D8F93C4890F893
:1059D00086008DF80D003A48B0F8860000128DF868
:1059E0000E00374890F885008DF80F00344890F885
:1059F00083008DF81000324890F882008DF8110075
:105A00002F4890F881008DF812002D4890F8800002
:105A10008DF81300002704E001A8C05D80EA0808A3
:105A20007F1C102FF8D38DF8148049F605721121D0
:105A300001A8FFF717FC4FF0010A99E0092D08D1E2
:105A400049F61F720B212048FFF70CFC4FF0010AAA
:105A50008EE00D2D02D14FF0010A89E00E2D41D1CB
:105A6000607A012806D11649C8661448C16B012026
:105A700088470FE0607A38B900201149C8660F489E
:105A8000C16B0020884705E049F61F720B210E48C4
:105A9000FFF7E8FB4FF0010A6AE000005C0000201D
:105AA0005400002050000020E0930400EC2500206A
:105AB0009C02002022000020200000206401002021
:105AC0001803002021000020040000201000002006
:105AD000AA010008FFFFFFEE070000000000000021
:105AE000B50000000F2D09D1E648017849F607728C
:105AF000401CFFF7B7FB4FF0010A39E0EE2D02D151
:105B00004FF0010A34E0EF2D02D14FF0010A2FE0EF
:105B1000ED2D02D14FF0010A2AE0F02D02D14FF015
:105B2000010A25E0FF2D1BD1607A00F5FA60D64905
:105B3000A1F88600A17AD44880F88510E17A80F82F
:105B40008310217B80F88210617B80F88110A07B1C
:105B5000CD4981F8800003F011F94FF0010A07E008
:105B600049F61F720B21C948FFF77CFB4FF0010A71
:105B7000BAF1000F07D00020C54908604FF48061DA
:105B8000C44805F02EFE00BFB9E51CB5C2A103C98B
:105B9000CDE900014FF49654E0B28DF801002012D7
:105BA0008DF80200BE4808226946836CBD489847BC
:105BB0001CBD10B5BC480088BC490968884213D296
:105BC000B948008800280FDD0120AF49C8651421BD
:105BD000B7480068FFF7CFFB28B1FFF7D6FF01F009
:105BE00093FAB349086010BD0020A749C86500BFFB
:105BF000F9E710B5AF480078C043AE4908700846D1
:105C0000007858B1002002F00AF818B90120AA491A
:105C1000087039E00020A849087035E0A6480078EF
:105C2000012818D10020A5490880A5480088B0F5B2
:105C3000967F05DAA2480088401CA149088023E02D
:105C40009F480088B0F5967F1ED14FF6FF709C49A3
:105C50000880012010BD00209949088097480088DD
:105C6000B0F57A7F05DA95480088401C9349088092
:105C70000AE092480088B0F57A7F05D14FF6FF70B0
:105C80008E4908800220E5E70020E3E710B58D4843
:105C90000078C0438B4908700846007858B102204C
:105CA00001F0BDFF012802D18749087038E00020CB
:105CB0008549087034E084480078012818D1002014
:105CC0008249087082480078142805DA80480078F4
:105CD000401C7F49087023E07D48007814281FD1BC
:105CE000FF207B49087001207A490968886417E021
:105CF00000207749087075480078142805DA734841
:105D00000078401C714908700AE070480078142837
:105D100006D1FF206D49087000206E49096888642B
:105D2000002010BD10B56C480078C0436A49087067
:105D30000846007858B1012001F071FF012802D116
:105D40006649087038E000206449087034E0634810
:105D50000078012818D10020614908706148007856
:105D6000142805DA5F480078401C5E49087023E07B
:105D70005C48007814281FD1FF205A490870012080
:105D800054490968C86417E000205649087054480F
:105D90000078142805DA52480078401C50490870F1
:105DA0000AE04F480078142806D1FF204C490870BB
:105DB000002048490968C864002010BD10B50A21B8
:105DC00049480068FFF7D7FA50B101F09DF94649FC
:105DD0000860FFF75BFFFFF7A5FFFFF70AFF10BDA5
:105DE0000020FCE7FFF7E1FA0120FFF767FC2C49F0
:105DF000886F804744E0FFF7E1FF044654B33B4817
:105E00000068A04226D039480460012C12D101203C
:105E10001D4908656420364908700020354908701E
:105E20004021184805F0DDFC002033490870334953
:105E300008700FE000201449086564202C490870A0
:105E4000CA202E49087000200F49C8661448C16B4B
:105E50000020884725480068FFF759FB00F022FA28
:105E6000FFF743FC02F0F0FCFFF74AFBFFF7A1FE4F
:105E700000F09EF9FFF78BFA0020FFF71FFC00BF30
:105E8000B9E70000BC0A002018030020040000202D
:105E90009C020020EC25002003C012FFFFFFFFFF43
:105EA000640100200300000C1000002014000020FA
:105EB000300000203D0000203C0000204000002079
:105EC0003E0000204300002042000020450000204A
:105ED0004400002060010020470000204600002010
:105EE00049000020480000204C0000200000002055
:105EF0001D00002021000020200000200F000020B5
:105F00001FB500200090019002900390D7480068D0
:105F100090F83C008DF80000D548006F58B9D34880
:105F2000006890F824008DF80100D0480068406AAD
:105F3000D049086014E0CE48006F012810D1CB484A
:105F4000006890F828008DF80100C8480068008DAE
:105F5000000A8DF80200C5480068806AC5490860DB
:105F6000C2480068007F8DF80300C0480068808B3D
:105F7000000A8DF80400BD48006890F820008DF8F4
:105F80000500BA48006890F834008DF80600B7485C
:105F9000006890F844008DF80700B4480068B0F835
:105FA0004400000A8DF80800B048006890F87C00B2
:105FB0008DF80900AD480068B0F87C00000A8DF843
:105FC0000A00AA480068007C8DF80B00A74800680A
:105FD000008A000A8DF80C0049F601720D2168460E
:105FE000FFF740F91FBD0EB5002000900190029010
:105FF0009E48006890F84800C007800F8DF80000A8
:106000009DF800009949096891F82C1001F00101F0
:106010000844C0B28DF800009448006890F84C0025
:10602000C007400F8DF801009DF801008F490968F5
:1060300091F8301001F003010844C0B28DF801005E
:106040008D480068C0B28DF80200894890F8580069
:106050008DF803008548006890F838008DF804003A
:106060008248006890F840008DF805007F4800687D
:10607000B0F84000000A8DF806007C480068007DFA
:106080008DF8070079480068808A000A8DF80800BA
:106090007A4800788DF80900794800788DF80A0070
:1060A000734890F864008DF80B0049F602720C21D9
:1060B0006846FFF7D7F80EBD002070471FB50020D7
:1060C0000090019002900390694890F874008DF858
:1060D00000006748007A8DF801006548007B8DF864
:1060E000020068480088C0B28DF80300604890F84C
:1060F00060008DF804005E4890F850008DF80500AF
:106100005B4890F868008DF806005948B0F86800C0
:10611000000A8DF80700564890F86C008DF80800CA
:106120005948008800128DF80A00574800788DF809
:106130000900002001F073FD30B99DF80A0020F03D
:1061400080008DF80A0005E09DF80A0040F080000C
:106150008DF80A00FFF7B0FF30B19DF80A0040F05B
:1061600040008DF80A0005E09DF80A0020F040008C
:106170008DF80A003D480068007E8DF80B003B4812
:106180000068008B000A8DF80C00384800688069B0
:10619000000C8DF80D00354800688069000E8DF800
:1061A0000E0049F603720F216846FFF75BF81FBD2A
:1061B00010B5642135480068FFF7DDF800282DD0C0
:1061C0000024334841680820884704463148007855
:1061D0000A2819DB00212F4A11702B4A1180002058
:1061E00008E02D4931F81010274A12881144264A38
:1061F0001180401C0A28F4DB234909880A2291FBFC
:10620000F2F1214A118008E0224801780078401C10
:10621000204A1070204820F8114000BF4FF4FA7156
:106220001A480068FFF7A7F828B1FFF769FE00F0E9
:106230006BFF164908604FF47A7118480068FFF741
:106240009AF828B1FFF7CFFE00F05EFF134908600F
:106250004FF47A7112480068FFF78DF828B1FFF704
:106260002DFF00F051FF0E49086010BD60010020B5
:106270001803002014000020180000200F00002048
:106280002100002010000020740000206800002081
:106290006401002064000020A80A00206C00002097
:1062A0007000002030B587B0F8480078052860D12C
:1062B000F748007802285CD01822F6A101A805F062
:1062C00077FAFA48007800283FD0F9480068022899
:1062D0002ED1EF48007858BB00F016FFF549096849
:1062E000401A40F6C41188420DD8F34805F084FAEC
:1062F0000446F2482146D0F88420EF489047002019
:10630000EF49087014E0EE4801780078401CEC4A30
:1063100010700A290CDBEB4805F06EFA0446E748DA
:106320002146D0F88420E74890470020E4490870CF
:1063300000F0EAFEDF490860E0481821C26F01A8BA
:1063400090470020D949087012E041F28831D948BD
:106350000068FFF710F858B100F0D6FED549086084
:10636000D6481821C26F01A890470020CF49087075
:1063700000BF3221D4480068FEF7FDFF002867D037
:10638000002500F0C1FED0490860D04800780228FE
:1063900001D007B030BD002505E0CC48405D0328A2
:1063A00000D104E06D1C40F29A208542F5DB00BF6D
:1063B0006C1C40F29A20854204DB0146C34805F07C
:1063C00010FAE6E70120B9490870B148007818B121
:1063D000AF48007801282BD1BC484079302815D12E
:1063E000BA488079302811D10120B1490860402194
:1063F000B74805F0F6F93F2C0BD2B5490C70224690
:10640000B249B348401C05F0D3F902E00220A84984
:1064100008609F480078012802D102209C4908703A
:106420009A480078C9280DD102209949087009E0DE
:1064300040F29A20844205DA49F606722146A348C2
:10644000FEF710FF40F29A21A04805F0CAF900BFFC
:1064500000BF9EE710B59F48006D01280CD19D48F4
:10646000806848B989480078C92805D0C92087497B
:1064700008700020984908708448007870BB00209C
:106480009549087000F040FE9449086094480078EF
:1064900001280DD1934805F0AFF9044687482146FD
:1064A000D0F884208F489047012078490870EBE0AD
:1064B0008B48007818B9022074490870E4E08848D5
:1064C00000786428F3D1884805F096F904467B48A3
:1064D0002146D0F8842084489047D5E06B48007866
:1064E000012811D17E48007818B902206749087048
:1064F000CAE07D4805F080F9044670482146D0F88E
:10650000842079489047BFE060480078022818D17D
:106510007048C06818B904205C490870B4E06D4840
:10652000C0680128C3D10320584908706F4805F09E
:1065300063F9044661482146D0F884206B489047AF
:10654000A2E052480078032807D16248C0680028BA
:10655000ADD104204D49087096E04C4800780428DD
:1065600021D15C48406E68B9614805F045F90446A0
:1065700052482146D0F884205D489047C9204349BD
:10658000087081E04F4805F037F904464B48214632
:10659000D0F884204B4890470020454908600520EA
:1065A0003A49087070E039480078052818D1494800
:1065B000406E30B9C9203549087000F0A5FD474943
:1065C00008603B480068012807D1C9202F4908709E
:1065D00000F09AFD4149086056E03548006853E0F4
:1065E0002A480078C9284FD13A48806880B93A488B
:1065F000007870BB3E4805F0FFF804462F4821465E
:10660000D0F884203A4890470220334908703BE094
:1066100031480078F0B900F077FD30490968401A38
:1066200040F6B83188422FD32148006801282BD189
:10663000304805F0E1F8044620482146D0F884208F
:106640002C48904700F060FD244908600120224951
:10665000087019E020480078012815D100F054FD99
:106660001E490968401A40F6B83188420CD32048C8
:1066700005F0C2F8044611482146D0F884201C4891
:10668000904702201449087010BD00000F00002040
:106690002100002002303030383137303030303097
:1066A0003030303F3F303030303E3003500100203A
:1066B000180000204C010020E500002064010020AB
:1066C000510100200801002048010020B64B0020A5
:1066D000BC0A0020180300205801002054010020AB
:1066E0001D0000209F000020780000208C0000206A
:1066F000C20000202301002010B5FFF7ABFE10BD43
:10670000704700BF0100A0F10100FBD1704700B548
:10671000034602E00820FFF7F4FF1800A3F101038D
:10672000F8D100BD00B5034603E04FF4FA50FFF77F
:10673000E8FF1800A3F10103F7D100BD10B504462E
:10674000102C02DB11A005F037FB102C02DA1448E4
:10675000005D10BD3020FCE713B504468DF80740FE
:106760001048D0F8B810019888471CBD10B50E48E5
:1067700000F07F400D4908600D4800F07F400C4953
:10678000086000F01DF900F0E8F910BD0A4153530C
:106790004552543A20686578203C2031360A000082
:1067A000DCC60008640100206D6700082C02002090
:1067B0003002002002464FF080700860081F01463A
:1067C00002606FF00103081F014603604FF01233AF
:1067D000081F014603604FF00333081F01460360A2
:1067E0004FF00233081F014603605B10081F01468B
:1067F00003600023081F014603604FF01133081F98
:10680000014603604FF01033081F014603604FF04C
:106810000933081F014603604FF00833081F014683
:1068200003604FF00733081F014603604FF0063343
:10683000081F014603604FF00533081F014603603F
:106840004FF00433081F014603600846704701609B
:10685000002242608260704770B504466949204654
:10686000FFF7A8FF054629466748FFF7F0FF70BD10
:1068700070B5044665492046FFF79CFF054629464A
:106880006348FFF7E4FF70BD62490968884205D09C
:10689000614908604FF08051604A1160704710B53F
:1068A0005948806850B158488068401E56498860F1
:1068B0000846806810B90846FFF7E6FF10BD584843
:1068C0005849D0F8A820012090474F485149086006
:1068D00008460068504908604FF080504F490860F2
:1068E00062B600BFFEE7014672B64F480088401C02
:1068F0004D4A10804D48008A282809DB1046008840
:10690000401E0004000C108000D162B600207047C9
:106910004648008A401C454A108210468068016043
:1069200010468068001D9060104680685268904252
:1069300003D93E4800683D4A90603B480088401EAD
:106940000004000C384A108000D162B60120DEE756
:1069500001463648008A002826DD72B63248008893
:10696000401C314A10803148C068006808602F48D8
:10697000C068001D2D4AD0601046008A401E10825B
:106980001046C0685268904203D928480068274AD8
:10699000D06025480088401E0004000C224A108068
:1069A00000D162B6012070470020FCE710B5044614
:1069B000002C04DD144884601548FFF765FF10BD06
:1069C0001B481A4908609C30486008460068886087
:1069D00008460068C8600020088216481049C1F8BF
:1069E000AC0015490E48C0F8B0101449C0F8B410F6
:1069F0001349C0F8BC101349C0F8B8101249C0F8C8
:106A0000C0107047F41100203818002034180020FE
:106A100044180020340200203802002004ED00E079
:106A2000640100209F6800085C010020000B00202A
:106A3000140B00205968000871680008BF6800083E
:106A400051690008E7680008AD69000810B5002822
:106A500007DA0A07140E554A00F00F031B1FD4541F
:106A600003E00A07130E524A135410BD70B50446D2
:106A7000E1B201231A464F4803F0ABFD01214D4816
:106A800003F07BFD00BF02214A4803F0E7FE002827
:106A9000F9D0484803F004FE0546284670BD00B50D
:106AA00087B001214FF4027003F08EF90120ADF898
:106AB000180000208DF81B0006A93F4802F0CEFE0A
:106AC0000121102003F080F91020ADF818000020FB
:106AD0008DF81B0006A9394802F0C0FE2020ADF851
:106AE000180000208DF81B0006A9344802F0B6FEFD
:106AF0004FF4004003F0CFF82E4803F0ABFC002029
:106B000001908DF808008DF809004FF46020039083
:106B10000020049001208DF8140001A9254803F0FD
:106B2000C0FC0121234803F0E8FC224803F007FDE4
:106B300000BF204803F008FD0028FAD11D4803F0EB
:106B40000DFD00BF1B4803F00EFD0028FAD1AFF287
:106B5000E3001B49486007B000BD10B500F0A4FC7D
:106B600002F03FFA01F045FF01F086FB02F016F952
:106B700000F0BBF84FF47A70FFF7D4FD00F04BFA49
:106B800000F095FFFFF78BFF00F0C1FA4FF4A06013
:106B900002F096FD0E214FF0FF30FFF757FF0F2157
:106BA0006FF00100FFF752FF10BD000018ED00E08C
:106BB00000E400E000240140000C0140001001400E
:106BC0006401002070B500244C48006800B970BD15
:106BD0004A48056841E015F0010F3CD004EB440041
:106BE000474951F82000401E04EB4401444A42F852
:106BF000210030D1012C07D00120A0403F49096875
:106C000081433E4801600CE0012C0AD104EB4400B2
:106C10003B4901EB8000406804EB4401384A42F8EC
:106C2000210038480068E04010F0010F0CD004EB60
:106C30004400334A02EB80008068334A1268811AAC
:106C40000120FFF789FD06E004EB44012C4A02EB2A
:106C50008101886880476D08641C002DBBD100BF8E
:106C6000B5E730B5044625480068E04010F0010F54
:106C700001D0002030BD04EB4400214D45F8202018
:106C800004EB440005EB8000426004EB440005EB9C
:106C90008000836039B10120A0401A4D2D6828433F
:106CA000184D286006E00120A040164D2D68854350
:106CB000144805600120A040104D2D6828430F4D59
:106CC00028600120D6E701460C480068C84010F053
:106CD000010F01D10020704701208840074A126847
:106CE0008243064802600120F5E708490848C0F8D9
:106CF0008C100849C0F89010704700003C0200203A
:106D000050180020400200202C020020636C000874
:106D100064010020C76C000810B503F0DCF83520D2
:106D200003F074FB10BD10B503F0E1F810BD70B5B1
:106D3000ADF5816D002416E0C148006850F83400BC
:106D4000401C0ED0BE48006850F834004DF82400B6
:106D5000BB48006800EBC40040685DF82410086080
:106D600000E002E0641CFF2CE6DD00BFB5494C806A
:106D70004FF48070888008464088022803DA08466D
:106D80004088088052E00026002413E0651C0BE0D8
:106D90005DF824005DF82510884204D100204DF8EC
:106DA0002400012604E06D1CA6484088A842EFDCC0
:106DB00000BF641CA3484088401EA042E6DC26B900
:106DC000A04840889F49088030E0FFF7A5FF9E4813
:106DD00003F0C6F80025002420E05DF8240000B987
:106DE0001BE05DF82400CDF800045DF82400006885
:106DF000CDF80404924ADDF80014126802EBC500D5
:106E000003F07EF98E4ADDF80414126802EBC50225
:106E1000101D03F075F96D1C00BF641C8948408883
:106E2000A042DADCFFF77FFF86490D8085480088A5
:106E30008449C8800DF5816D70BD70B50446254646
:106E40000CB9002070BD7F48C0887E49898888427F
:106E500001D10020F6E7FFF75FFF7A49C988784A39
:106E6000126802EBC100294603F04AF9754AD2883C
:106E7000734B29681B6803EBC202101D03F040F935
:106E8000FFF751FF6F48C088401C6E49C880012041
:106E9000D8E74FF4C0526D4B5A816D4A1A601A46BA
:106EA00012685A6000221A816949002009E00A78B4
:106EB000FF2A04D1654A51601346188104E0491C39
:106EC000401CB0F5C05FF2DB00BF704710B5FFF7A4
:106ED00023FF002405E05E4901EBC42003F040F8E5
:106EE000641C032CF7DBFFF71EFF59485749086065
:106EF00048600020088110BD10B50246544908784A
:106F0000FF2801D153A010BD1AB951484F4C206041
:106F1000F9E7501C18D14D480368016800BF11F80B
:106F2000014B002CFBDC087800B9491C0878FF28CD
:106F300002D04548814203D94548444C206001E0D5
:106F4000424801601846DEE7002A1DDD0EE00878A1
:106F5000FF2801D13FA0D6E700BF08780028FCDC5D
:106F6000491C00BF08780028FCD0491C1000A2F181
:106F70000102ECD10878FF2802D03348814201D9C0
:106F800034A0C0E70846BEE734A0BCE70FB4F0B5B4
:106F90009BB001AE002503E0002026F8020B6D1C1B
:106FA000322DF9DB21A81A9001A81A9A209904F031
:106FB0000BFF044600201A901CB91BB0F0BC5DF812
:106FC00014FB641C14F0010F00D0641C1F480089DE
:106FD0002044B0F5C05F01DB0020EEE7671001AE92
:106FE000FFF79AFE00250BE03188184A506803F03D
:106FF000BAF816484068801C14494860B61C6D1CDD
:10700000BD42F1DBFFF78FFE1048008920440F4995
:1070100008810120D1E710B5FFF789FE1349144814
:10702000C0F894101349C0F898101349C0F89C1088
:107030001249C0F8A0101249C0F8A41010BD0000F9
:10704000440200204802002000F00308D01900206C
:1070500000D803084E756C6C0A0000004172677519
:107060006D656E744572726F720A00002F6D0008B4
:10707000640100203B6E0008CD6E0008F96E000828
:107080008D6F000810B502462AB3012A12D0022AD9
:1070900032D1354800780A2801D1002010BD32488D
:1070A00003780078401C304C2070304840F82310A2
:1070B0000120F3E72E480078042801D10020EDE7F5
:1070C0002B4803780078401C294C2070294840F850
:1070D00023100120E2E728480078022801D100208F
:1070E000DCE7254803780078401C234C20702348B7
:1070F00040F823100120D1E70020CFE720480068A6
:10710000401C1F49086070471D480068704730B533
:107110001C4800684FF47A72B0FBF2F1B1F1807F45
:1071200000D31BE021F07F40401E4FF0E022506171
:1071300050170F22002806DA1301134C00F00F0538
:107140002D1F635502E01301104C235400BF002093
:107150004FF0E02290610720106100BF0C490D48FC
:10716000C0F8A81030BD0000940200206802002082
:1071700095020020580200209602002050020020B4
:1071800090020020EC02002018ED00E000E400E096
:107190008570000864010020E448E549086000F2B9
:1071A000E730486008460068886008460068C860A4
:1071B000002008827047DF48DF49086000F2FF7056
:1071C000486008460068886008460068C86000207B
:1071D000088270470146D648008AB0F57A7F01DB05
:1071E00000207047D24880680170D1488068401CF8
:1071F000CF4A9060104680685268904203D9CC48CC
:107200000068CB4A906072B6CC480088401CCB4ADC
:107210001080C748008A401CC54A1082C7480088B1
:10722000401E0004000CC54A108000D162B6012047
:10723000D7E770B504460D464DB103E014F8010BD5
:10724000FFF7C8FF2800A5F10105F7D10DE009E01F
:1072500020780A2802D10D20FFF7BCFF14F8010B9B
:10726000FFF7B8FF20780028F2D170BD70B5044652
:107270000D460A2C02D10D20FFF7ACFFE0B2FFF75C
:10728000A9FF204670BD10B50246AD4B1B7803B96F
:1072900010BD002012E0AA4B1B7803B9F8E703E009
:1072A000A74B1B7803B9F3E7A64B1B8813F0400FDD
:1072B000F6D0135CA34C241D2380401C8842EAD3E3
:1072C00003E09F4B1B7803B9E2E79E4B1B8813F04A
:1072D000400FF6D000BFDBE79748008A70470146B1
:1072E0009548008A08B9002070479348C068007824
:1072F00008709148C068401C8F4AD0601046C06832
:107300005268904203D98C4800688B4AD06072B6AC
:107310008A480088401C894A10808748008A401E9D
:10732000854A108285480088401E0004000C834A6C
:10733000108000D162B60120D6E710B503460A4698
:107340007D48008A90422BD3002126E07A48C0680D
:10735000007858547848C068401C774CE06020465C
:10736000C0686468A04203D973480068724CE0604A
:1073700072B672480088401C704C20806E48008AAB
:10738000401E6D4C20826D480088401E0004000C99
:107390006A4C208000D162B6491C9142D6D301E0EC
:1073A000002010BD0120FCE710B540F225516548D2
:1073B00002F042F9E8B1634802F0BEF8C4B2624894
:1073C000006810B9AA2C00D010BD5F490868411CA4
:1073D0005D4A11605D490C5410460068B0F5806F3D
:1073E00002D300201146086040F22551554802F0B2
:1073F0004DF90821534802F009F9012802D15148FA
:1074000002F09AF800BFDFE708B50121052002F07D
:10741000DBFC4FF40070ADF8000003208DF8020093
:1074200018208DF803006946494802F017FA4FF416
:107430008060ADF8000048208DF80300694644489C
:1074400002F00CFA012240F225513E4802F00FF8FA
:1074500001213C4801F0FFFF01203949087008BDB7
:1074600008B50020364908700121052002F0ACFC67
:107470004FF4C060ADF8000004208DF80300032035
:107480008DF802006946324802F0E8F9002240F225
:1074900025512C4801F0EBFF00212A4801F0DBFFC9
:1074A00008BD2C490860704700B585B001218803EC
:1074B00002F08AFCFFF77FFE25208DF800000320F4
:1074C0008DF8010002208DF8020001208DF80300E4
:1074D000684602F0FAF84FF4E13001900020ADF870
:1074E0000800ADF80A00ADF80C00ADF810000C2053
:1074F000ADF80E0001A9134801F021FF012240F26E
:107500002551104801F0B3FF01210E4801F0A3FFFF
:10751000FFF742FEFFF7A4FF0F491048016510492D
:1075200041651049816505B000BD0000F0190020DB
:10753000DC190020EC1D0020D81D00205C0100207B
:1075400098020020003801409C020020EC25002019
:1075500000080140A0020020097400086401002016
:1075600061740008877200089E489F49086000F215
:10757000FF10486008460068886008460068C860D8
:107580000020088270479949086070470146964874
:10759000008AB0F5007F01DB0020704792488068C8
:1075A000017091488068401C8F4A90601046806846
:1075B0005268904203D98C4800688B4A906072B63A
:1075C0008B480088401C8A4A10808748008A401CEB
:1075D000854A108286480088401E0004000C844AB8
:1075E000108000D162B60120D7E770B504460D4681
:1075F0004DB103E014F8010BFFF7C8FF2800A5F117
:107600000105F7D10DE009E020780A2802D10D200C
:10761000FFF7BCFF14F8010BFFF7B8FF2078002834
:10762000F2D170BD7048008A00B970477148008877
:1076300010F0400F00D1F8E76F48007801280BD117
:107640006948C06800786B49091D08806648C068B1
:10765000401C6549C86004E06348C068401C62493A
:10766000C8606148C06860494968884203D95E487B
:1076700000685D49C86072B65D480088401C5C497E
:1076800008805948008A401E574908825848008897
:10769000401E0004000C5649088000D162B600BFAD
:1076A000C3E710B540F22551524801F0C5FF18B1AB
:1076B000504801F041FFC4B208214E4801F0A6FF36
:1076C000012802D14B4801F037FF10BD08B5012158
:1076D000052002F079FB0420ADF8000003208DF8AE
:1076E000020018208DF803006946444802F0B6F8FD
:1076F0000820ADF8000048208DF8030069463F4897
:1077000002F0ACF8012240F225513A4801F0AFFEF8
:107710000121384801F09FFE01203749087008BD5B
:1077200008B50020344908700121052002F04CFB07
:107730000C20ADF8000004208DF8030003208DF824
:10774000020069462D4802F089F8002240F22551D6
:10775000284801F08CFE0021264801F07CFE08BD7F
:1077600000B585B00121480402F03BFB26208DF8CE
:10777000000003208DF801008DF8020001208DF833
:107780000300684601F0A1FF4FF4E13001900020B2
:10779000ADF80800ADF80A00ADF80C00ADF8100027
:1077A0000C20ADF80E0001A9124801F0C8FD01221D
:1077B00040F225510F4801F05AFE01210D4801F019
:1077C0004AFEFFF7D1FEFFF7ABFF0D490D484166BA
:1077D0000D4981660D49C1660D49C1650D490166B6
:1077E00005B000BD002A0020EC290020A8020020DE
:1077F0005C01002000440040A40200200008014079
:1078000087750008640100208D750008EB7500087D
:10781000CD760008217700087047794908607047E5
:1078200070B57848048814F0400F08D000207649DD
:107830000860024640F22661724801F018FE14F01A
:10784000200F07D06F4801F077FEC5B228466C497B
:107850000968884714F0080F02D06A4801F06CFEEE
:1078600070BD70B505460C460120674908604FF0B1
:107870000001664803F0E3F864481C38856204623E
:10788000002240F226615F4801F0F1FD01215F48CE
:1078900003F0D5F870BD10B5202003F009F90128D8
:1078A0000CD1202003F017F94021564801F0BBFE0F
:1078B000012240F22661534801F0D9FD10BD00B508
:1078C00091B00121092002F07FFA0121880402F021
:1078D00088FA00204C4908604FF48070ADF84000F1
:1078E0004FF002008DF842004FF010008DF8430079
:1078F00010A9474801F0B2FF4FF48060ADF8400096
:1079000003208DF8420018208DF8430010A940484C
:1079100001F0A4FF4FF40060ADF8400048208DF85E
:10792000430010A93A4801F099FF27208DF82C0058
:1079300003208DF82D008DF82E0001208DF82F00EA
:107940000BA801F0C2FE4FF4E1300C900020ADF81E
:107950003400ADF83600ADF83800ADF83C000C202E
:10796000ADF83A000CA9274801F0E9FC012240F2E9
:107970002551244801F07BFD0121224801F06BFDD7
:107980000C208DF82C0002208DF82D008DF82E0093
:1079900001208DF82F000BA801F097FE0121084669
:1079A00002F005FA194802F07DFF1648001D00900C
:1079B00000200190102002900820039000200490E5
:1079C0008020059000200690079008904FF400500A
:1079D000099000200A9069460C4803F005F801223E
:1079E00002210A4803F037F801228021054801F0FE
:1079F00063FD0849084801670849416711B000BDA7
:107A0000AC02002000480040A08121421C0002403E
:107A1000000C01401B780008640100206378000816
:107A20008D4800680068012800D170470020FCE7FD
:107A300020B10121894A1268116003E00021874AC0
:107A400012681160704720B90021854A12681160E0
:107A500005E0012803D10121814A126811607047B5
:107A600020B900217F4A1268116005E0012803D186
:107A700001217C4A12681160704720B900217A4ABE
:107A80001268116005E0012803D10121764A1268CD
:107A90001160704720B90021744A1268116005E036
:107AA000012803D10121714A12681160704708B59D
:107AB00001216F4801F0A1FF6E486F4908606F48CF
:107AC000664908606E48644908606D4898306449AA
:107AD0000860684818306B490860001D6A490860F2
:107AE0006448A0305F490860624894305E4908608D
:107AF000624814305D49086001211C2002F064F9DD
:107B00000020564909680860584909680860422001
:107B1000ADF8000010208DF8030002208DF802005F
:107B200069465A4801F09AFE0120ADF80000042091
:107B30008DF8030003208DF802006946544801F0D7
:107B40008DFE0220ADF8000048208DF803000320D0
:107B50008DF8020069464F4801F080FE0020404940
:107B6000096808608020ADF8000010208DF803003F
:107B700002208DF802006946464801F06FFE0020A1
:107B800038490968086001203749096808604FF4DE
:107B90009070ADF8000010208DF8030002208DF8E1
:107BA000020069463A4801F059FEC020ADF80000D5
:107BB00004208DF8030003208DF802006946344844
:107BC00001F04CFE344935488162AFF29B11C1622D
:107BD0003349016333494163334981633349C163A5
:107BE00008BD021F052A18D2DFE802F003070B0FB9
:107BF00013001A4A126811600FE0194A12681160E6
:107C00000BE0184A1268116007E0174A1268116009
:107C100003E0164A1268116000BF00BF70470146BA
:107C200031B101290CD002290ED0032910D103E073
:107C30001148006800687047074800680068FAE764
:107C4000104800680068F6E70F4800680068F2E72F
:107C500000BF00BFEFE70000B0020020C00200201C
:107C6000C4020020C8020020CC020020D002002064
:107C70000004300000012142B4020020848121422E
:107C800004012242B8020020BC020020000C014086
:107C90000008014000100140217A00086401002022
:107CA000477A0008617A00087B7A0008957A000814
:107CB00030B585B005460021FE4803F08EFB10B9B3
:107CC000002005B030BD6A460021FA4803F002FBEF
:107CD000002404E00DF10B00005D2855641C082C05
:107CE000F8D39DF80A00ECE72DE9F04385B007468C
:107CF0008846154600200090019704208DF8080062
:107D000000208DF809008DF80A50002405E018F8CD
:107D100004100DF10B000155641CAC42F7D3694609
:107D2000E44803F0E3F90646002400E0641C314611
:107D3000E04803F073FA012803D040F6FF70844254
:107D4000F4D340F6FF70844209D34FF00009D948BC
:107D500003F0CAFB8146002005B0BDE8F083012096
:107D6000FAE73EB5044600208DF8060001208DF8A4
:107D7000070000208DF8080001208DF80900002080
:107D80008DF80A008DF80B008DF802000F2C73D2CD
:107D9000DFE804F0081624313E4B586573808D9A55
:107DA000A7B4C10001208DF8030005208DF8040060
:107DB00003208DF805004FF41670ADF80000B8E010
:107DC00000208DF8030002208DF8040001208DF8BA
:107DD00005004FF41670ADF80000AAE000208DF801
:107DE000030009208DF8040006208DF805006420AA
:107DF000ADF800009DE000208DF8030002208DF812
:107E0000040001208DF80500F020ADF8000090E09E
:107E100000208DF8030002208DF8040001208DF869
:107E200005009620ADF8000083E000208DF80300E7
:107E300009208DF8040006208DF805002820ADF8F3
:107E4000000076E000208DF8030002208DF8040089
:107E500001208DF805004B20ADF8000069E00020FE
:107E60008DF8030009208DF8040006208DF8050028
:107E70001420ADF800005CE05AE000208DF803000B
:107E800002208DF8040001208DF805003020ADF8A7
:107E900000004EE000208DF8030007208DF804005C
:107EA00006208DF805000920ADF8000041E0002013
:107EB0008DF8030002208DF8040001208DF80500E4
:107EC0001820ADF8000034E000208DF803000420F5
:107ED0008DF8040002208DF805000A20ADF800009E
:107EE00027E000208DF8030005208DF80400042011
:107EF0008DF805000620ADF800001AE000208DF88E
:107F0000030004208DF8040002208DF805000520F0
:107F1000ADF800000DE000208DF8030002208DF880
:107F2000040001208DF805000620ADF8000000E0F7
:107F300000BF00BF69465F4802F05FFF3EBD2DE90C
:107F4000FF4106460C4615461F46DDF828800D2EDB
:107F500003D9002004B0BDE8F081F0B28DF80A002A
:107F600000208DF80B0001208DF80C00B8F1090FEE
:107F700075D2DFE808F0051B32485F758AA1B600AC
:107F8000C4F34F30ADF80000042000EBC40080B211
:107F9000ADF80200C5F34F30ADF80400042000EB4B
:107FA000C500801C80B2ADF80600B0E0C4F34F30CD
:107FB000ADF80000042000EBC400801C80B2ADF8D6
:107FC0000200C5F34F30ADF80400042000EBC500FB
:107FD000801C80B2ADF8060099E06005000CADF899
:107FE0000000002040EA445080B2ADF8020068056D
:107FF000000CADF80400042000EB4550801C80B25A
:10800000ADF8060083E06005000CADF8000000202C
:1080100040EA4450801C80B2ADF802006805000CB4
:10802000ADF80400042000EB4550801C80B2ADF890
:1080300006006CE0C4F34F30ADF80000042000EB04
:10804000C40080B2ADF80200C5F34F30ADF80400B3
:10805000042000EBC50080B2ADF8060057E055E003
:108060006005000CADF80000002040EA445080B2EA
:10807000ADF802006805000CADF80400042000EB28
:10808000455080B2ADF8060041E0C4F34F30ADF882
:108090000000002040EAC40080B2ADF80200C5F341
:1080A0004F30ADF80400022000EBC50080B2ADF8FF
:1080B00006002CE000640040C4F34F30ADF800002F
:1080C000022000EBC40080B2ADF80200C5F34F30CF
:1080D000ADF80400022000EBC50080B2ADF8060048
:1080E00015E0C4F34F30ADF800004FF6FF7000EA22
:1080F000C400ADF80200C5F34F30ADF804004FF6F0
:10810000FF7000EAC500ADF8060000E000BF00BF48
:10811000ADF8087001208DF80D00684602F0F7FEFA
:10812000012017E73EB5FC4802F04EFE012148064B
:1081300001F057FE0121092001F046FE01214FF414
:10814000EA1001F05AFC4FF48070ADF808000320EB
:108150008DF80A0048208DF80B0002A9EF4801F0C5
:108160007DFB4FF40070ADF8080018208DF80B006F
:1081700002A9EA4801F072FB01221221E64803F04D
:10818000C4F914208DF8040001208DF805000020AA
:108190008DF8060001208DF8070001A801F095FA7E
:1081A00015208DF8040001208DF805008DF80600DB
:1081B0008DF8070001A801F088FAD948016C0A205F
:1081C000884700200090D64800235A1ED549446CA9
:1081D0001846A04700200090D14800235A1ED249DB
:1081E000446C0120A04700200090CD4800235A1E77
:1081F000CE49446C0220A04700200090C8480023CC
:108200005A1ECB49446C0320A04700200090C4486C
:1082100000235A1EC749446C0420A0470020009048
:10822000BF4801239A1EC449446C0520A047002082
:108230000090BB4801239A1EC049446C0620A04709
:1082400000200090B64801239A1EBD49446C0720C7
:10825000A04700200090B24801239A1EB949446CFF
:108260000820A04700200090AD4801239A1EB6497F
:10827000446C0920A0473EBD1CB50121480601F011
:10828000B0FD0121092001F09FFD01214FF4EA100A
:1082900001F0B3FB4FF48070ADF8040003208DF8BB
:1082A000060048208DF8070001A99C4801F0D6FA85
:1082B0004FF40070ADF8040018208DF8070001A9F4
:1082C000964801F0CBFA01221221934803F01DF9E0
:1082D00014208DF8000001208DF8010000208DF899
:1082E000020001208DF80300684601F0EEF9152028
:1082F0008DF8000001208DF801008DF802008DF846
:108300000300684601F0E1F990498548016490490D
:108310004164904981641CBD00B585B004217E484C
:1083200003F05AF920B104217B4803F0EEF922E171
:108330000821794803F050F920B10821764803F06C
:10834000E4F918E10221744803F046F90028EED060
:108350006A460021704802F0BDFF754A0198811AF3
:1083600090427CD006DC7C49401879D0B0F5807F03
:1083700077D106E07948081837D0B0F5284FF7D103
:1083800053E09DF80E109DF80F0041EA0020C01048
:1083900073490968C8619DF80D0071490968086250
:1083A0006F480068006920F080006D490968086125
:1083B0006B480068006940F040006949096808613D
:1083C00067480068006920F0200065490968086175
:1083D00063480068006940F010006149096808615D
:1083E000FEF792FE5F490860BFE09DF80D0000F0C7
:1083F0007F005B490968486259480068006920F4B9
:10840000007057490968086155480068006940F4E0
:10841000807053490968086100205149096808675C
:10842000FEF772FE4F4908609FE09DF80C00C0F314
:1084300080004B490968C8629DF80C00C0F3011028
:1084400047490968086346480068406920F40050BD
:1084500043490968486142480068406902E01BE0FE
:1084600040E081E040F480503D49096848613C4863
:108470000068406920F4007039490968486138484B
:108480000068406940F48070354909684861FEF72A
:108490003BFE3449086068E09DF811209DF81210F9
:1084A00042EA0120C11700EB116109122C4A12683F
:1084B00091622B480068006920F40070284909681F
:1084C000086127480068006940F480702449096801
:1084D00008610120224909680867FEF715FE214955
:1084E000086042E09DF80C001D49096848631C487B
:1084F0000068006920F008001949096808611848F7
:108500000068006940F00400154909680861FEF739
:10851000FBFD1449086028E000640040000C0140A5
:10852000640100200004F00C00F1FE180099FF180F
:10853000EE6CFE0C0003F00C1703FF18173E1F1C17
:108540001700FF1800F2FE18FF17FE18637D0008E1
:108550003F7F0008E97C000800FD0FF3EE7BFFF38E
:1085600060010020D402002000BF00BF0221774834
:1085700003F0CBF800BF05B000BD00B585B02021E9
:10858000724803F029F820B12021704803F0BDF8AB
:10859000CFE040216D4803F01FF820B140216B4827
:1085A00003F0B3F8C5E01021684803F015F800287F
:1085B000EED06A460121654802F08CFE644A0198BB
:1085C000811A904245D007DC624940187ED06FF492
:1085D0005A4140187BD160E0B1F5407F03D05E483E
:1085E0000818F7D11BE09DF80B0000F002005B4972
:1085F0000968886359480068406920F008005749B5
:108600000968486155480068406940F004005349D2
:1086100009684861FEF778FD5149086083E09DF8DC
:108620000D004E490968C8634C480068006920F491
:1086300000604A490968086148480068006940F4D8
:108640008060464909680861FEF75EFD444908609C
:1086500069E09DF80C0000024049096808643F4841
:108660000068006C9DF80B1008443C4909680864D8
:108670003A480068406920F00200384909684861BA
